:1000000000800020BD010000711E0000291E0000BC
:10001000291E0000291E0000291E0000291E0000C4
:10002000291E0000291E0000291E0000711E00006C
:10003000711E0000291E0000711E0000191E000024
:10004000711E0000711E0000711E0000711E000074
:10005000711E0000711E0000711E0000711E000064
:10006000711E0000711E0000711E0000711E000054
:10007000711E0000711E0000711E0000711E000044
:10008000711E0000711E0000711E0000711E000034
:10009000711E0000711E0000711E0000711E000024
:1000A0008D1B0000991B0000711E0000711E0000D6
:1000B000711E0000711E0000711E0000711E000004
:1000C000711E0000711E0000711E0000711E0000F4
:1000D000711E0000711E0000711E0000711E0000E4
:1000E000711E0000711E0000711E0000711E0000D4
:1000F000711E0000BD380000711E000001400000AC
:10010000711E000071450000711E0000711E00008C
:10011000711E0000711E0000711E0000711E0000A3
:10012000711E0000711E0000711E0000711E000093
:10013000711E0000711E0000711E0000711E000083
:10014000711E0000711E0000711E0000711E000073
:10015000711E0000711E0000711E0000711E000063
:10016000711E000059240000711E0000711E000065
:10017000711E0000711E0000711E0000711E000043
:10018000711E0000711E0000711E0000711E000033
:10019000711E0000711E0000711E0000711E000023
:1001A000711E0000711E0000711E0000711E000013
:1001B000711E0000711E00007D300000564B4CF295
:1001C000205210B51A804DF628121A8000BF00BFC9
:1001D00001F052FE514B4FF010621A60504A9A6083
:1001E000504ADA60504A136813F4807304D14F49BF
:1001F0000B604FF4A85313604D4B1A78110703D5C9
:100200001A7842F008021A704A4B4B492A221A7097
:100210004A4A4B4B8B4204D252F8040F43F8040B6A
:10022000F8E7484B484900228B4202D243F8042B9E
:10023000FAE74649464A002352F8230041F82300D2
:1002400001336F2BF8D1434B434A802103F8011B44
:100250009342FBD1414B3D4A1A60414B8A221A70AE
:10026000A3F5805324225A70A0221A709A7992071B
:10027000FCD59A79D406FCD43A4A937903F00C035E
:10028000082B384BF9D103221A7140225A719A79FE
:100290009006FCD5334A9179324B4906FBD5324A58
:1002A000324911600221516020221A709A7902F0BD
:1002B0000C020C2AFAD12E4B2E4A1A602E4B2F4AD2
:1002C0001A6000225A60072243F8042C2C4AC3F813
:1002D0000C2D62B601F098FF144B1B68DA0705D5A8
:1002E000284801F025FF284B284A1A60284B1B7824
:1002F0005B0609D5244C254B22689A4204D121483B
:1003000001F016FF0023236004F0DEFB01F0BAFDCC
:1003100002F034FFFEE700BF0E20054030800440AD
:10032000823F04000100002B10D0034014D0034092
:1003300002D0074000E00740DC91FF1FF2590000A7
:100340002087FF1FE091FF1FFC98FF1F0082FF1F07
:100350000000000000E400E05FE400E008ED00E0E1
:100360000050064000400640448004400000030165
:1003700004800440C010050014E000E0FF76010096
:1003800000002020F524655A1CE00340A5C3945AC0
:1003900000F00740FFFFFFFFFFFFFFFFFFFFFFFF32
:1003A000FFFFFFFFFFFFFFFFFFFFFFFFFFFFFFFF5D
:1003B000FFFFFFFFFFFFFFFFFFFFFFFFFFFFFFFF4D
:1003C000FFFFFFFFFFFFFFFFFFFFFFFFFFFFFFFF3D
:1003D000FFFFFFFFFFFFFFFFFFFFFFFFFFFFFFFF2D
:1003E000FFFFFFFFFFFFFFFFFFFFFFFFFFFFFFFF1D
:1003F000FFFFFFFFFFFFFFFFFFFFFFFFFFFFFFFF0D
:10040000FFFFFFFFFFFFFFFFFFFFFFFFDEF9FFFF23
:1004100010B5054C237833B9044B13B10448AFF33E
:1004200000800123237010BDE091FF1F0000000039
:10043000E0590000084B10B51BB108490848AFF35C
:1004400000800848036803B910BD074B002BFBD0A0
:10045000BDE81040184700BF00000000E491FF1FF6
:10046000E0590000DC91FF1F00000000014800F08F
:100470000BB800BFFC91FF1F014800F03BB800BF64
:10048000FC91FF1FFFFFFFFF154A1649106870B56A
:10049000154C164E0B783BB123789B0704D013689C
:1004A00035685B1B182B04D813681B1AB3F57A7FC9
:1004B000F0D90F4800F0A4FA07A3D3E900230021E4
:1004C0000B4800F001FA0A48002100F031FA084810
:1004D000BDE8704000F09AB9E1F0F0F0F0000000E3
:1004E000D095FF1FB496FF1FCC96FF1FF498FF1FF7
:1004F0000092FF1F00B5134889B000F0D5F9F0B1A4
:100500000023202269460F4802930093019303932E
:10051000049305930693079300F0CAF90A210A4849
:1005200002F0CCFC094802F019FE684604F0E8FD30
:100530000146684602F0C2FC044802F00FFE09B012
:100540005DF804FB0092FF1F30560000DC96FF1F91
:10055000034A044B12781978034800F045B900BFEC
:100560000088FF1F0488FF1F0092FF1F38B5044654
:1005700001200D4600F0D2FA002000F0F7FA0448FE
:1005800000F0E8FBE9B26078BDE8384001F0E2BD78
:100590000110013838B50C4600210546FFF7E6FF8B
:1005A0000E4B04F01F044FF00042DA6218465C6301
:1005B000C36A0A4A002BFBDA4FF00041FF23906B1D
:1005C000D16211465363CB6A044A002BFBDA946B69
:1005D00028460121FFF7CAFFE0B238BD00C0024043
:1005E000F8B50E46002114461F460546FFF7BEFF2C
:1005F000134A06F01F0343F020034FF00041D1627D
:1006000010465363C26A0E49002AFBDA8E6B781ECD
:10061000F6B2C0B277B12044621E0F464FF00044DC
:1006200012F8013FCC624B63CB6A002BFCDA8242AA
:10063000BB6BF5D128460121FFF798FF3046F8BD86
:1006400000C0024070B50C4600211646054604F075
:100650001F04FFF78BFF0F4B44F020044FF00042C4
:10066000DA6218465C63C36A0A49002BFBDA8C6BBA
:100670004FF00043CB62E4B208464E63C36A054ABA
:10068000002BFBDA28460121936BFFF76FFF204612
:1006900070BD00BF00C002402DE9F04703790D4650
:1006A0009A42817928BF1A4606469146002947D1C9
:1006B0009B1A5FFA83F808F1FF34E4B23046002158
:1006C000FFF754FF20484FF000426123C2624363AA
:1006D000C16A1D4B0029FBDA9F6B09F1FF305FFAFD
:1006E00087FAC0B2B9F1000F11D02844691E1A462A
:1006F0009C464FF00047FF25D7625563D36A002B15
:10070000FCDADCF8383001F8013F8142F4D1B8F16D
:10071000000F0ED00C4A4FF000451046FF21D56265
:100720005163D36A002BFCDA013CE4B2FF2C836BEB
:10073000F5D130460121FFF719FF5046BDE8F0879B
:10074000FF244FF00008B9E700C0024038B500218F
:100750000546FFF70BFF094B4FF00041E222D9623B
:1007600019465A63CB6A054A002BFBDA946B28467C
:100770000121FFF7FBFEE0B238BD00BF00C0024020
:1007800038B500210546FFF7F1FE094B4FF0004157
:10079000E122D96219465A63CB6A054A002BFBDA7B
:1007A000946B28460121FFF7E1FEE0B238BD00BF9F
:1007B00000C0024038B500210546FFF7D7FE094BBF
:1007C0004FF00041FF22D96219465A63CB6A054AAD
:1007D000002BFBDA946B28460121FFF7C7FEE0B23D
:1007E00038BD00BF00C00240F0B500244FF0010E3C
:1007F0002025002600270170427080F802E0057174
:10080000C0E90267C47044718471F0BD10B5002165
:100810000446FFF7BFFE40F00302D2B2002120469B
:10082000FFF710FF702220460721FFF70BFFD4E9E6
:100830000223134306D0052304F108020A212046AF
:10084000FFF7CEFE2046FFF781FF2046FFF798FF17
:100850002078012101F07EFC4FF48253013BFDD151
:1008600010BD00BFF8B50D460746FFF7A3FF00F027
:100870004003002B14BF012600260BD0044615B1FF
:10088000C0F342032B70402207213846FFF7DAFEFF
:10089000A30601D43046F8BD384620220721FFF7D1
:1008A000D1FE3046F8BD00BF0021FFF7DBBF00BF1F
:1008B00010B50446FFF7F0FE20461721FFF76AFE49
:1008C00000F0010010BD00BF70B582B0CDE900237B
:1008D00005460C46F1B9C0E90223144E0523315DEB
:1008E0006A462846FFF77CFE34442A79217A284656
:1008F000FFF7A8FE02212846FFF74CFE227C0123C9
:1009000003FA02F20243D2B228460221FFF79AFE0E
:1009100002B070BD0629FBD80129DED0034E0123A9
:10092000715C6A46FFF75CFEDEE700BFE05900003D
:1009300038B50C4606210546FFF72CFE032C00F0C7
:10094000F9020BD0022C11D0012C17D0042C05D0A9
:1009500028460621BDE83840FFF774BE284642F01D
:1009600006020621BDE83840FFF76CBE284642F07B
:1009700004020621BDE83840FFF764BE284642F075
:1009800002020621BDE83840FFF75CBE70B50E4696
:1009900006210446FFF7FEFD0023022E00F0D705D6
:1009A000A37013D0012E04BFA67045F008052A4697
:1009B00006212046FFF746FE06212046FFF7EAFD06
:1009C00085421ABF0020A070012070BD45F02005AF
:1009D000EDE700BF38B50C4600210546FFF7DAFD0C
:1009E00000F0F3022CB1012C0CBF42F0080242F0DF
:1009F0000C0228460021BDE83840FFF723BE00BFA7
:100A000010B504460121007801F0AAFB60780121AD
:100A100001F0A6FB00F03AF82078002101F09AFBE3
:100A200001212046FFF7A2FD052001F09FFB4F2288
:100A300004212046FFF706FE20460321FFF778FF3A
:100A400020460221FFF7A2FF08B10123E370002135
:100A50002046FFF79BFF20460221FFF7BBFF002245
:100A60001C212046FFF7EEFD702207212046FFF7EC
:100A7000E9FD4C2205212046FFF7E4FD2046FFF763
:100A800065FE2046BDE81040FFF77ABE1649174BB9
:100A90000A681748F0B442F48052164F164E174DAC
:100AA000174C0A601F60DE601D611C600378D90767
:100AB00055BF144A144A4FF410714FF4007111607D
:100AC0009A0754BF114A124A5B074FF4007154BF92
:100AD000104B114B116054BF4FF410724FF4007261
:100AE0001A60F0BC704700BF3C80044000C0024068
:100AF000DA96FF1F01401F00011000380110007836
:100B000000001F8018B0044008C004401CB004401E
:100B10000CC0044014B0044004C00440104A114901
:100B2000136843F480531360CB6880B943F080733B
:100B30000C4AD1688B4209D0116848040AD40A488B
:100B4000106043F08040D36010611160704723F063
:100B50008073EDE743F08041D3601161704700BFBF
:100B60003C80044000C0024001401F00684B6949BE
:100B70001A6842F4805230B41A601A6842F4805203
:100B80001A60CB68CA6813F0807F02F00F020CBFB6
:100B900000232023012A03D9042A6ED843F001033D
:100BA0005C4A1268550401D443F04003594A126864
:100BB000002A01DA43F0100355490A68D40440EAD8
:100BC000030005D4534B544C42F480520A60DC605D
:100BD00010F0400404D14F4A136843F4804313607B
:100BE0004E4B4F4A10F0200F08BF1A46010748BF6E
:100BF00042F08062430705D510F0030351D1494B01
:100C0000134306E010F003033ED142F4805343F057
:100C10000103404AD168D56801F000410B43AB4263
:100C200003D011684D0463D5D36010F0100F3E4B14
:100C300008BF4FF4F813002C3BD036493B4A0B60F9
:100C40001378DD0755BF3A4A3A4A4FF410714FF412
:100C500000719C07116054BF374A384A58074FF457
:100C6000007154BF364B374B116054BF4FF41072B4
:100C70004FF400721A6030BC7047062A94BF43F0EC
:100C8000020343F003038BE7012B3CD0022B0BBF85
:100C900042F4C04342F4E04343F0060343F0070349
:100CA000B7E7012B2CD0022B0CBF274B274B13434C
:100CB000AFE718491D4A43F4804343F001030B603A
:100CC0001378D90754BF1A4A1A4A4FF4A271116017
:100CD0009A0754BF184A194A5B074FF4A27154BFD0
:100CE000174B184B11604FF4A2721A6030BC70475A
:100CF00041F4804545F001051560D360116094E72B
:100D0000134B134385E742F4804343F0040380E729
:100D10003C80044000C0024001100138000001384E
:100D2000000001390101000200001F80DA96FF1F58
:100D300018B0044008C004401CB004400CC004407B
:100D400014B0044004C00440060600020707000275
:100D500004040002124A1349136843F480531360D9
:100D6000CA6802F0E063920105D5020902F47062DC
:100D700020F4704010430B4AD1681843884209D0D0
:100D80001368590407D40849116040F08041D060CD
:100D900011611360704740F08043D0601361704769
:100DA0003C80044000C0024001401F0010B50446D2
:100DB00002F0A6F9204610BD024A0349034803F099
:100DC00071BE00BFFC87FF1FAD0D00002C92FF1FFE
:100DD00038B5074D074C08482A46214603F062FE05
:100DE0002A4621460548BDE8384003F05BBE00BFF7
:100DF000FC87FF1FAD0D00003492FF1F3C92FF1FC8
:100E0000024A0349034803F04DBE00BFFC87FF1FA1
:100E1000AD0D00004492FF1F024A0349034803F04E
:100E200041BE00BFFC87FF1FAD0D00004C92FF1FAD
:100E3000024A0349034803F035BE00BFFC87FF1F89
:100E4000AD0D00005492FF1F024A0349034803F00E
:100E500029BE00BFFC87FF1FAD0D00005C92FF1F85
:100E6000024A0349034803F01DBE00BFFC87FF1F71
:100E7000AD0D00006492FF1F024A0349034803F0CE
:100E800011BE00BFFC87FF1FAD0D00006C92FF1F5D
:100E9000024A0349034803F005BE00BFFC87FF1F59
:100EA000AD0D00007492FF1F024A0349034803F08E
:100EB000F9BD00BFFC87FF1FAD0D00007C92FF1F36
:100EC000064B074ADA620221002259609A7083F8C1
:100ED000242083F8302083F8322070478492FF1F4B
:100EE0006456000008B50121007801F033F90E4B7B
:100EF0001A7802B908BD0D4A127800211970002A2B
:100F0000F8D0D00703D50A490A4B09681960910740
:100F100003D50749084B496819605307EAD5044AC5
:100F2000064B92681A6008BDDC92FF1F2892FF1FD3
:100F30001C92FF1F00E100E004E100E008E100E096
:100F4000204B1A781AB10078002101F003B970B46F
:100F50001D491E4A0C78126801251D7004B372B633
:100F60000B78DC0707D51A4C1A49266809681A4D10
:100F7000314029602160990707D5184C154926682A
:100F80004968154D3140216069605B0707D51449F8
:100F9000104B0D689B68104C2B400B60A36062B631
:100FA000104BD968914207D00F4C1C600F49DA6092
:100FB00042F080441C6119600078002170BC01F08F
:100FC000C9B800BFDC92FF1F2892FF1FD892FF1FF5
:100FD00080E100E01092FF1F1C92FF1F84E100E0FF
:100FE00088E100E000C0024001401F0000001F80B7
:100FF000F0B4134C134A236882B01746009300984C
:101000004FF0004680B2FF25136843F480631360FD
:10101000D6625563D36A002BFCDABB6BDBB2FF2BC5
:101020000AD023680193019B9BB21B1A8B42EBDB16
:10103000002002B0F0BC7047012002B0F0BC704745
:10104000D095FF1F00C00240F8B50D464FF49671D1
:1010500016460446FFF7CCFF284B1A684FF00040B5
:1010600042F4806245F040011A60D8621A46596322
:10107000D36A002BFCDA214918204FF000470A6898
:1010800026FA00F342F48062DBB20A60CF624B635F
:10109000CB6A002BFCDA083810F1080FEFD155B3FA
:1010A000082D0CBF8721FF21144B1A684FF0004018
:1010B00042F480621A60D8621A465963D36A002BE0
:1010C000FCDA0E4A002716464FF00045FF21136850
:1010D00043F480631360D5625163D36A002BFCDA5A
:1010E000B36BD8B21B06607000D4F8BD0137B7F5FA
:1010F000807FECD1F8BD9521D6E700BF00C002404B
:10110000F0B4164C164A236882B017460093009933
:101110004FF0004689B2FF25136843F480631360E3
:10112000D6625563D36A002BFCDABB6BDBB2FF2BB4
:1011300043700BD123680193019B9BB25B1AB3F5FB
:10114000967FE9DD002002B0F0BC7047A3F1FE00FD
:10115000B0FA80F0400902B0F0BC7047D095FF1F94
:1011600000C00240F8B58378032B0E46044618BF32
:101170004E021546FFF7E4FE324611212046FFF7E6
:1011800063FF18B92046FFF7BBFF20B92046FFF7E1
:10119000A9FE0020F8BD204B2049214A1A608E4646
:1011A00059631A4659631E46596305F5FD70A91C1B
:1011B00005F5FE77D36A13F0F00FFBD0C6F834E0E4
:1011C000B36B01F8013C1B1201F8023C02318F4263
:1011D000F0D105F50075A8420DD20F4A1646D36A24
:1011E00013F0F00FFBD0B36B191200F8021BA842EA
:1011F00000F8013CF3D3084B0949084A1960194625
:101200005A63CB6A044A13F0F00FFAD02046936B6E
:10121000FFF768FE0120F8BD00C00240FFFF00900C
:1012200000041F80F0B4314E33684FF0004743F4A0
:10123000806333603D46F762344671633346511C28
:1012400002F20127E26A002AFCDA1A6811F8016C3E
:1012500042F480621A60DD625E63E26A002AFCDAB0
:101260001A6811F8026B42F480628F421A60DD62E4
:101270005E63E7D11D49CA6A1C4B002AFBDA1A6873
:101280004FF0004542F48062FF241A601946DD6287
:101290005C63CB6A154A002BFBDA13684FF00045FC
:1012A00043F48063FF2413601146D5625463CB6A14
:1012B0000E4A002BFBDA13684FF0004543F48063BD
:1012C000FF2413601146D5625463CB6A074A002B92
:1012D000FBDA936BDBB203F01F024370A2F105004F
:1012E000B0FA80F04009F0BC704700BF00C0024077
:1012F00070B5044671B18378032B0D4618BF4D02BB
:101300001646FFF71DFE2A4618212046FFF79CFED1
:10131000054620B12046FFF7E5FD002070BD3246AE
:10132000FE212046FFF77EFF0028F3D04FF4167110
:101330002046FFF75DFE0028ECD02A460D2120460E
:10134000FFF782FE0028E5D10B4B1A684FF00045ED
:1013500042F48062FF201A601946DD625863CB6A4E
:10136000054A002BFBDA936B13F0FF0FD2D1204616
:10137000FFF7B8FD012070BD00C00240014B024ADA
:101380001A607047D892FF1F0110013838B590F9E4
:101390000530002B03DBBDE8384000F091B904466E
:1013A0000121006900F0B6F9F8B1257D104B13EB6F
:1013B00045151AD0A3790F4A012B9CBFA369EB6195
:1013C000E36912686B831B0CAB8232B105F1160125
:1013D00005F1180090472B8B6B82637903F07F0334
:1013E0006371BDE8384000F06BB9002038BD00BF24
:1013F000EC92FF1FE092FF1F10B500F108020446B7
:101400000121006A00F024FA50B1E3693BB9637925
:10141000A268E26163F07F036371012010BD0120C7
:1014200010BD00BFF8B5837913B182698A4201D239
:101430000020F8BD022B0F4605461AD007B32B6AD1
:10144000E9681C7C4A1E04F109037C1EDA40DC407A
:10145000A24211D9EB69AB6005F1080606E0A96864
:10146000286A00F0BDF9013C0028E1D03246002C8A
:10147000F5D1EF600120F8BD0029EBD0A41AEBE70D
:10148000AF60EF600120F8BD2DE9F04F8B46817908
:1014900085B001298046019206D0012388F80430E6
:1014A000002005B0BDE8F08F42799107F5D55307CC
:1014B0000AD5D8F80C40D8F818108C4200F0C68035
:1014C000FFF7B0FF0028E8D0019BD8F80C40002BB4
:1014D00000F0AF80DFF8C891DFF8C8A1019F3AE0C3
:1014E000002C43D1D8F80810002940F08380D8F8A8
:1014F0001C20002A00F09280C8F80820C4F500766D
:10150000B6B2BE4239D890F810E04169023A02FA08
:101510000EF20D44B6F5007F154435D1DAF80020FF
:10152000954204BF4FF0FF32CAF80020584A2946BE
:1015300010685A46FFF7DCFE0028AED00BF5007BA2
:101540004FF40074D8F80C20BF1B1444BFB2C8F885
:101550000C40002F6DD0D8F820000579013D05EA38
:10156000542515F0FF05C4F30804B9D0C4F500767E
:10157000B6B2BE42D8F80820C5D9067C4169023A05
:10158000B2400D4415443E462CB9D8F80C10D8F89A
:10159000182091421BD22846012100F0BBF80028F8
:1015A0003FF47BAF4C4404EB060E744520D00BF1A6
:1015B000FF31621E0EF1FF3511F8010F02F8010F25
:1015C0009542F9D1C4EB0E0EF3443446BAE700F06D
:1015D00077F800283FF461AF2E49CAF800500A7826
:1015E0004C4404EB060E42F0010274450A70DED151
:1015F0003446A7E703AA00F0F3F800283FF451AF00
:10160000D8F82000244B90F82060039A4FF6F87128
:10161000102E18BF19468A42FFF46EAF4046FFF7FE
:10162000EBFE00283FF439AFD8F82000D8F80820A6
:1016300064E7D8F81830A3420DD298F80520C8F80E
:10164000184042F0800288F805200FE0019B002B33
:101650007FF440AF0AE0114B98F805201B682BB1CE
:10166000019B1BB142F0800288F8052012070AD5C1
:1016700098F80630002B3FF410AF4046FFF786FE87
:1016800000283FF40AAF019805B0BDE8F08F00BF15
:10169000E892FF1FEC94FF1FF8FFFF0FE092FF1F7F
:1016A000EC92FF1F0888FF1F00B583B002AB012238
:1016B00003F8011D1946FFF7E7FE03B05DF804FBD0
:1016C00070B50F4C23780BB9012070BD0D4B0E4D3A
:1016D000196828680D4AFFF70BFE70B10C4E31688F
:1016E00019B900232370012070BD2868074AFFF74D
:1016F000FFFD10B100233360F3E7002070BD00BF91
:10170000EC94FF1F0888FF1FE892FF1FEC92FF1F59
:10171000E492FF1F70B50D4D2B6883420E460ED02C
:101720000446FFF7CDFF08B9002070BD084B094AF9
:1017300018682146FFF716FD0028F5D02C60064BEF
:10174000197831431970012070BD00BF0888FF1F50
:10175000E892FF1FEC92FF1FEC94FF1FF8B590F882
:101760002030C469102B1A4B05460E4617461B68DD
:1017700016D004EBD1149C4216D106F07F06154A10
:1017800042F826701449287E0A78012842F00102A6
:101790000A7018D9A968114A0B4413600120F8BDDA
:1017A00004EB11249C4208D000212046FFF7B2FF31
:1017B00050B195F82030102B07D1F6B2054A2346D8
:1017C00022F81670DEE70120F8BD2346D5E700BFFA
:1017D0000888FF1FEC92FF1FEC94FF1FE492FF1F8D
:1017E000C36801338B4218D370B590F82030102BAA
:1017F000154B044616460D46C0691B680FD000EB1A
:10180000D11098420FD105F07F01104B53F82130D1
:1018100023F070433360012070BD0020704700EB5F
:101820001120984207D00021FFF774FF50B194F8BF
:101830002030102BE7D1E9B2044B33F8113033607C
:10184000012070BD002070BD0888FF1FEC92FF1FB3
:101850002DE9F04F176883B06FB301374FF0000ADE
:10186000C36803F1010813B38B46064691463C4614
:10187000002505E01C461F46F3680135AB4216D92A
:10188000A04538BF0224214601AA304638BF27466A
:10189000FFF7A6FF631CD91B48B1019A002AE9D1C2
:1018A0008B4510D01C46F3680135AB42E8D80020C8
:1018B00003B0BDE8F08FA1F1010ABAFA8AFA07680D
:1018C0004FEA5A1ACCE7012CF1D9F36801339C4254
:1018D000EDD86FF0704221463046FFF73FFF0028F9
:1018E000E5D0A74214D2013C012CE0D9F3680133C2
:1018F0009C42DCD8621C21463046FFF72FFF0028AF
:10190000D5D0A74204F1FF3402D0012CEED1CEE7AE
:10191000D9F8001059B10129C9D9F36801339942A6
:10192000C5D83A463046FFF719FF0028BFD0C9F89E
:101930000070BAF1000F01D0013737600120B7E71E
:1019400090F8392090F83800101A704790F8383025
:1019500090F839209A4205D95A1C034480F838205F
:10196000187E70474FF0FF30704700BF90F8383056
:1019700090F839209A4286BF1B18187E4FF0FF302E
:10198000704700BF704700BFB0F85E306BB190F891
:101990005D30202B07D8C218013380F85D3001205C
:1019A00082F83B107047012303710020704700BF8D
:1019B00038B50546B0F85E0090B195F85D30144634
:1019C000C3F1210294420CD805F13B001844224691
:1019D00000F018F995F85D30234485F85D30204615
:1019E00038BD012014462871EEE700BF10B502692A
:1019F000D378DBB2D90604463DD510215806D17004
:101A000038D503F0040303F0FF02002B51D03D4909
:101A1000626E00230B7084F85D30002A5BD0904723
:101A200094F85D30002B56D02369D0229A70236938
:101A300094F83B201A712369012284F85C20022269
:101A4000DA7010BD304B84F860009C424AD02F4BB6
:101A50009C4252D094F8391013791F29DBB207D871
:101A60002848007820B16018013184F839100376D5
:101A70000223D37010BD5906C3D4917801F0100130
:101A800001F0FF000029DDD013F001031ED194F80E
:101A90005C1094F85D00884281BF4B1C091984F8E2
:101AA0005C3091F83B3013712369D0229A7022691F
:101AB000DEE7236984F83920C0229A702369114A2D
:101AC0001979012111700222DA7010BDC0239370C0
:101AD00022691379CCE70122002384F85D2084F881
:101AE0003B30A1E7626994F861300949134403224D
:101AF000187A00F05DFA2269ACE7626994F8613007
:101B00000449F3E75C95FF1F6095FF1FF094FF1FEA
:101B1000751B0000811B00000369DB7803F02003C4
:101B200073B190F860300133DBB2012B80F8603084
:101B30001AD9426990F861301344187A00F0B4BAA7
:101B400070B5426903F0FF0590F861301344044614
:101B5000187A00F0A9FAA36E5BB184F8385094F8B3
:101B60003900BDE87040184790F85F30002BE0D096
:101B7000704770BD0148FFF7CFBF00BF6095FF1FE2
:101B80000148FFF7C9BF00BFF094FF1F0148FFF7EE
:101B90002DBF00BF6095FF1F0148FFF727BF00BFA3
:101BA000F094FF1FF0B41049104B114A0A61002253
:101BB0004FF47A740F4F1048104E114D0A710A738A
:101BC00081F8612081F862201A711A7383F861200C
:101BD00083F862204F618C609C601E615D610860CB
:101BE0001860F0BC704700BF6095FF1FF094FF1FA6
:101BF000006006406C560000B456000000700640BD
:101C00008C560000844641EA000313F003036DD1B3
:101C1000403A41D351F8043B40F8043B51F8043BAF
:101C200040F8043B51F8043B40F8043B51F8043BB6
:101C300040F8043B51F8043B40F8043B51F8043BA6
:101C400040F8043B51F8043B40F8043B51F8043B96
:101C500040F8043B51F8043B40F8043B51F8043B86
:101C600040F8043B51F8043B40F8043B51F8043B76
:101C700040F8043B51F8043B40F8043B51F8043B66
:101C800040F8043B51F8043B40F8043B51F8043B56
:101C900040F8043B403ABDD2303211D351F8043BF6
:101CA00040F8043B51F8043B40F8043B51F8043B36
:101CB00040F8043B51F8043B40F8043B103AEDD2A5
:101CC0000C3205D351F8043B40F8043B043AF9D2F6
:101CD000043208D0D2071CBF11F8013B00F8013BC9
:101CE00001D30B8803806046704700BF082A13D3D6
:101CF0008B078DD010F003038AD0C3F10403D21AEE
:101D0000DB071CBF11F8013B00F8013B80D331F821
:101D1000023B20F8023B7BE7043AD9D3013A11F8A1
:101D2000013B00F8013BF9D20B7803704B7843700C
:101D30008B7883706046704730B42948294A2A4B13
:101D40002A4D6024E121047011701B78284C082B67
:101D500030D00A2B2748284937D00C2B0CBF35220E
:101D60003D2212232A60236002600B60234B24492A
:101D70001B78244ABBB101230B601360224B23491B
:101D80001B78234A012B26D9042B0FD9082B1ED9E7
:101D9000102B94BF862387230B6013601D4B0122F9
:101DA0001A7030BC70470B601360E7E784230B6048
:101DB0001360F3E700F58E200F490830012213234A
:101DC0002A60236002600B60D0E73922F7E78523A1
:101DD0000B601360E2E780230B601360DEE700BF57
:101DE00000400740014007400C88FF1F08B0034037
:101DF0000CB0034008B00B400CB00B40CD95FF1F5A
:101E000020B0034020B00B400D88FF1F24B00340DA
:101E100024B00B40CC95FF1F024A136801331360B6
:101E2000704700BFD095FF1F08B5104C08E023682D
:101E300059050DD423681A050FD42368DB0411D487
:101E400023685803F3D500F007FB23685905F1D543
:101E500001F034FD23681A05EFD502F0D1F82368AC
:101E6000DB04EDD502F084FBEAE700BF34800440D8
:101E700008B5FFF7D9FF00BF014B10221A80704749
:101E800000200540704700BF094908B50B6830B114
:101E90006A461844A2F58052904202D20860184661
:101EA00008BD02F00BFE0C2303604FF0FF3008BDAD
:101EB0001088FF1FEFF3138070B9EFF310836BB935
:101EC000EFF305825AB94FF48070EFF311832BB111
:101ED000984228BF184670474FF0FF3070470F2ACE
:101EE00001D81846F1E7014BD05CEEE7F0E300E0E3
:101EF000704700BF10B40F4B53F8302092F8804267
:101F00002CB1012369B182F8803010BC704703EB1B
:101F1000C0035B681A6841B922F002021A6010BC63
:101F2000704782F8003110BC704742F003021A601B
:101F300010BC7047CC5600001C4A02EBC0030129BC
:101F40005B6811D004291BD052F83000002280F8C1
:101F5000802229B1022920D0032922D01A6070479B
:101F60004FF480721A60704752F830004FF4A2723A
:101F700080F880121A601A6822F020021A607047F6
:101F800052F830104FF4A272012081F880021A60DA
:101F90001A6842F020021A60704740F203121A6079
:101FA00070474FF481721A60704700BFCC56000032
:101FB000212817D8F8B5042A13D8DFE802F0494CD5
:101FC0004F1446002C4872B6236823F4702343F064
:101FD0008072C4F384011643236040F821502660C8
:101FE00062B6F8BD70474FF41026244B03EBC003D4
:101FF0000D465C68216811F4E06134D0204B214A21
:102000002149C3F89C2104F140422048C3F8A4119F
:10201000A2F592211E4FC3F8A0017C291D48C3F8E8
:10202000A871C3F8AC01CDD9A2F594237C2B18D9A3
:10203000A2F596237C2B19D9A2F598237C2B17D9CE
:10204000A2F59A227C2A15D9F8BD4FF43026CCE7A8
:102050004FF40026C9E74FF44026C6E74FF4202688
:10206000C3E70D48AFE7FFF767FFC7E70B48AAE7ED
:102070000B48A8E70B48A6E71488FF1FCC560000C2
:102080000082FF1FD187FF1F7987FF1FA587FF1FD2
:102090004D87FF1F2187FF1F4C88FF1F9C88FF1F54
:1020A000CC88FF1FEC88FF1F1A4B03EBC00010B455
:1020B000426802F14043A3F592217C2905D9A3F59A
:1020C00094217C2913D8144900E0144972B613688E
:1020D000134C23F08773C2F3840023F4803343F05E
:1020E0008073136041F8204062B610BC7047A3F5BE
:1020F00096217C2909D9A3F598217C2907D9A3F534
:102100009A237C2BF1D80749E0E70749DEE7074926
:10211000DCE700BFCC5600004C88FF1F1488FF1F6F
:10212000F11E0000EC88FF1F9C88FF1FCC88FF1F5A
:1021300030B4054B054D064C002210211A602A6070
:102140002060196030BC704714D0034004D00340B5
:1021500000D00340212801D8FFF7CCBE704700BF54
:10216000212801D8FFF7E8BE704700BF2DE9F843EA
:10217000054672B6204F214B214A1B683C68126805
:1021800062B6520102D5322B88BF013495B3C3F534
:10219000BB331C4EDFF86490DFF86480FF334FF4EC
:1021A0007A72A6FB031302FB04F404EB931472B6D9
:1021B000D9F800103A68D8F800E062B6C1F5BB3330
:1021C000FF33A6FB03031EF0806FC4EB93134FF4A1
:1021D0007A7002D0322988BF013200FB0233B3F596
:1021E0007A7F04D3013D05D004F57A74DFE700F06F
:1021F000EFFFDCE7BDE8F883D095FF1F18E000E0B3
:1022000004ED00E0ABAAAAAAF8B52D4B2D49DFF8E2
:10221000D0E0DFF8D0C02C4E2C4D2D4C2D4A2E4F47
:102220004FF4000018604FF0807018604FF000709D
:1022300018604FF0806018604FF000601860002058
:10224000086028234BF6FF71CCF80010CEF8003060
:10225000336013602B6023603B60B362936209229A
:1022600045F8242CC4F8D80F05F57F65C7F8D41FAE
:1022700007F5FF2707F5FA67C6F8F83F2B6006F564
:10228000FF26C4F8D42F05F5FD2504F5FF2438609A
:1022900006F2F4761148316005F5FF6504F5FD643A
:1022A0002B6023600260FFF747FD3220FFF75EFFDF
:1022B00000F0FCFC4FF4AF70BDE8F840FFF756BFEC
:1022C00008E100E0048003401480034024800340C0
:1022D0002C8003401C8003403480034000800B406E
:1022E0000C80034008800340431E032B14D872B6B1
:1022F0000A4951F8230068B170B4094C058834F8D4
:102300001320466841F82360521B24F8132062B65C
:1023100070BC704762B67047002070472C96FF1F54
:10232000E498FF1F013803280BD872B6074B53F807
:10233000203043B100205B680130002BFBD162B636
:102340007047002070471846F9E700BF8096FF1FCE
:10235000F0B472B61A491B4E012311F8014B194F04
:102360009A00240742F0010505D556F8324064B1C1
:1023700056F83520BAB10133052BEED162B6124BB7
:1023800000221A70F0BC00F00DBD0F4C0F4D2178EB
:1023900047F8325007EB431308304A1E586022704A
:1023A00062B6F0BC70470849094B0A7847F83530E7
:1023B00007EBC5030830013A58600A7062B6F0E7CF
:1023C000045800000080FF1FA996FF1F88004000EE
:1023D000C8004000431E032B1DD81B4A400140F09B
:1023E000100030B4104472B6184CE25C032A1BD8BB
:1023F000DFE802F00212151703220D88E25410F0F4
:10240000080F14BFC823882343EA0543083103603B
:10241000416062B630BC704708300222EDE7052209
:10242000EBE708300422E8E7094A52F8230038B104
:10243000084A52F82300416042F8231062B6E9E7E7
:1024400042F82310034AF7E70080FF1FB896FF1FEA
:102450008096FF1F9096FF1F2DE9F04FDFF800A335
:10246000DFF800B387B044E0A84F4FEA930807EBCA
:10247000C809013ED9F8042003F00803F6B2A2F11E
:10248000080003F0FF04002B40F0FC8057F83830C0
:102490001B0C99B222F8081C002B00F0EA809C4B20
:1024A00022F8064C42F8044C53F82620002A00F08B
:1024B0002982984D55F826305860974C45F82600EB
:1024C00034F81630194424F8161000F04BFC00289C
:1024D00000F01182914A924B19F0080F00F10800A8
:1024E00018BF1346C9F8040047F8383008238AF8A3
:1024F00000309AF80040E4B260071AD5894B1B7887
:10250000A3B189490A7802F0FF0322B1013BDBB293
:102510000B7003B900BE85490A7802F0FF032AB1A7
:10252000013BDBB20B70002B00F0BB8104238AF867
:10253000003004F0080303F0FF02002B00F0C68017
:102540009BF80030DBB21E098ED19C086F4F57F804
:10255000342007EBC401C2F38302013A49680C2A14
:1025600000F28380DFE802F07777818181818181C9
:1025700040818181070008686D4B6E4D0193674B68
:102580004A686D4E47F8343081B240F28164684B3E
:102590006A60286000220120A1421A603A61BA6193
:1025A000307000F2E180B1F5D06F80F02582B1F596
:1025B000817F00F0DE8100F2C181802900F0348249
:1025C000822940F0DC81A9885C4B042900F2D88183
:1025D0005B4C89000B44227062701A78930740F1BB
:1025E00022832070022023E2514B01931A683AB3F0
:1025F000544B514E5449188834780D7840288646FB
:1026000045F0020828BF4FF0400E002C84F0010472
:102610003470CEEB00000CBF8824C82407EBC8063A
:1026200080B285F0010544EA0E447260188047F8D4
:10263000384072440D70002800F0B780019B1A608A
:102640003C4B1A88B2F5A06F0FD100219A785970CF
:102650003E4B1A7009E0374A108842F2210290423C
:1026600000F0A8802D4A47F83420394A012313701E
:102670003CE72A4A2A4B19F0080F18BF134647F8BF
:10268000383033E700F08EFB324A334952F82630B7
:10269000002B00F03B8158688C5D42F8260003F166
:1026A0000802C9F80420032C05D8DFE804F02C0246
:1026B000292602228A551A8819F0080F0CBF882390
:1026C000C82343EA024347F838300FE7E00700F138
:1026D000EB80210600F12881A20706D51F4A204978
:1026E00013780220DBB213700870E30602D51C4B8E
:1026F00010221A7007B0BDE8F08F04228A55DAE77D
:1027000005228A55D7E703228A55D4E70080FF1FA8
:102710002C96FF1FD895FF1FE498FF1FC8004000AC
:1027200088004000B496FF1F3D96FF1FBC96FF1F18
:10273000D495FF1FA096FF1F3C96FF1FC0200740A7
:10274000AC96FF1FE895FF1FA896FF1F9820074033
:10275000942007408096FF1FB896FF1F88200740EF
:10276000802007409020074042F22104A14200F05F
:10277000948043D8B1F5086F00F0A881B1F5106FCF
:1027800040F0FD80B84AB94CA978117004F1800579
:1027900003E00834AC4200F09E81236A1906F8D5A4
:1027A000606A083800F0FEFAF3E7BEF1400F18BF88
:1027B000002243E7AE4ACD1D11F8013B02F8013F6C
:1027C000A942F9D1AB4A1268862A00F01181AA49C0
:1027D000AA4E0A78307882F00105002842F0020201
:1027E0000D700CBF8821C82147F8321007EBC202D8
:1027F00080F0010000213070516033E742F2212463
:10280000A14240F0FE81DFF8BCC29D4B9D49AC78EF
:10281000DCF800501D6081460C700020029080465C
:102820008446044694490D7845F0020E07EBCE032A
:10283000B9F1000F5C600CBF8824C82444EA080387
:1028400085F0010447F83E3032700C70DFF81CE26E
:102850008A4BDFF82482002840F09880BCF1400FBA
:102860001BD144F0020407EBC403029FDFF8FCE134
:102870005F60002A40F09F80020442F08802074413
:102880004EF8342086F800900D703B46402804D165
:1028900000207D4A019910800B607C4A012313704F
:1028A000E3E600F0C7FB41E6704B784872491A61D5
:1028B0004FF0020E80F800E0754F0A7075491960FC
:1028C0009960754E754D764C9A610D213970FF21D6
:1028D0003170DFF8F4E129702270724D724A8EF87F
:1028E00000109F27012406F8047C5D600470DA6004
:1028F00007B0BDE8F08F6D4A47F838001378013310
:102900001370F3E543F82600694DD6E58B5D032B84
:1029100067D801A252F823F0ED240000ED24000056
:102920006D2900006729000059495C4B80220D2069
:1029300008701A70A2077FF5D8AECFE640F20232D7
:10294000914240F05681A98801F07F01042916D8F0
:102950006A88A2B94E4C89000C448146217841F026
:102960000201217059E701238B55BFE500238B55E8
:10297000BCE5A98801F07F01042940F24781444B5E
:102980000F221A70414A012313706EE640287FF629
:1029900068AF44F002040EEBC401029E4E60AAB17F
:1029A000444A83F800903346403888F8005040335A
:1029B0004EF834206DE70204029B86F8009042F046
:1029C000C8020D7003444EF834205FE783F800908E
:1029D000029B304A88F80050403840334EF834208B
:1029E00057E719F0080F0CBF022303238B557DE531
:1029F000314A0F211170EAE6304A5468002CBED0EB
:102A00006888B5F804E003E00C325468002CB6D0B6
:102A100013888342F8D153887345F5D1000A0328FF
:102A20000CBF2078108903E0254C022022706270D0
:102A3000EA88824280F00C810F490D78402A45F0E7
:102A4000020E944607EBCE0028BF4FF0400C04EB7B
:102A50000C0344600293CCEB02004FEA0C484FF0A9
:102A600001090022C824E9E6B496FF1F0080FF1F79
:102A7000EB98FF1FEC98FF1FA896FF1F3C96FF1FC7
:102A8000F498FF1FCC96FF1FE895FF1F9420074086
:102A9000C020074088004000882007408020074071
:102AA00098200740EC95FF1F4096FF1FA996FF1F37
:102AB000D895FF1FC80040003D96FF1F0858000032
:102AC000AC96FF1FD095FF1F8C200740684A694CC9
:102AD00012782270ACE76849684B694A02916949EB
:102AE000694C6A4D039405964FF0000988461C46D0
:102AF00016460495206828B1456800F053F9284629
:102B0000002DF9D100232360049B30681A4600236E
:102B100042F8293028B1456800F044F92846002DD4
:102B2000F9D100223260029A98F800301146002252
:102B300041F8042B039A0291023B4FF0000122F866
:102B40001910032B07D8DFE803F0340234024FF0EA
:102B5000010388F8003009F10109B9F1040F04F10B
:102B6000040406F1040608F10108C3D1484B059E90
:102B7000DFF83091DFF8308100211970012518F855
:102B8000013B09F8043B1A0718D4AC0044F00202D8
:102B900044F00304002347F8323047F834303D4B0B
:102BA000994505F10105EAD196F8009089F00102F6
:102BB00033E64FF0000388F80030CCE700F0D2F89D
:102BC000AC0007EB451300F10802002837D05A602B
:102BD000314B47F8343000F0C5F844F0010307EBFF
:102BE000C30200F1080100B351602C4A47F83320BA
:102BF000CCE7B1F5A06F7FF4C2AE00224FF001091F
:102C00000BE642F221329142F7D0B8E66A88002AF8
:102C10007FF4B5AE224C89000C448146217821F026
:102C200002012170F9E5022002E7194B44F001028C
:102C30001B7847F83200164A01331370A6E7144B8D
:102C4000134A1B78AC00013347F834001370C2E715
:102C50004028844628BF4FF0400C04EB0C03CCEB1B
:102C600000004FEA0C48029300224FF00109D9E519
:102C7000B496FF1FAC96FF1F9096FF1F2C96FF1F68
:102C80008096FF1FB896FF1FE498FF1FD895FF1F7F
:102C9000A996FF1FD420074088004000C8004000CC
:102CA000C0200740C4200740045800002DE9F84325
:102CB000204C01F0C9FC002204F1880023461A6070
:102CC0005A60083383424FF00001F8D11A4A1B4F73
:102CD00013681B4D1B481C4EDFF87880DFF878C066
:102CE000DFF87890DFF878E043F480231360C4F3D2
:102CF00007233B70C4F307432B70240EFF2302F518
:102D000028320470114D88F8003011488CF80030DA
:102D1000D4323370012389F8003070268EF8001009
:102D20004FF40074102107F8183C2E7004601170E5
:102D3000BDE8F8830080FF1F348004409C200740DA
:102D4000B0200740B42007401020074049E400E0CD
:102D500008E100E0802007408820074094200740D9
:102D60000021074072B60D480268B2FA82F30B2BBD
:102D700010DC4FF00041D94022EA0102026062B645
:102D8000074803EBC303DB00C2180021C150104603
:102D90005160704762B60020704700BFF488FF1F83
:102DA000BC83FF1F0D4B0E4AC31AA2FB03231B0952
:102DB0000B2B0CD80B4A127852B972B60A484FF056
:102DC0000041026821FA03F31A43026062B67047B9
:102DD000064A1278002AF0D0FFF7BABABC83FF1F68
:102DE000398EE338A996FF1FF488FF1FB496FF1FA2
:102DF00038B50F4D286878B143880288C11801336F
:102E000093420C7A02D24380204638BDFFF7CAFFB6
:102E1000002320462B6038BD064B1B782BB10320C6
:102E2000FFF762FA28600028E6D14FF0FF3038BD86
:102E3000C896FF1FB496FF1F10B5094C206818B143
:102E400043881844007A10BD064B1B782BB1032031
:102E5000FFF74AFA20600028F2D14FF0FF3010BD92
:102E6000C896FF1FB496FF1F044B054A1B68908845
:102E70001BB11A885B88D31A18447047C896FF1F85
:102E8000E498FF1F0B4B1B789BB110B50A4C2068D0
:102E900048B1FFF787FF002303202360FFF724FAE0
:102EA00030B1FFF77FFF0320FFF71EFA0028F8D1AB
:102EB00010BD7047B496FF1FC896FF1F2DE9F04F55
:102EC000DFF8F89083B0012289F80020019169B3FE
:102ED000DFF8EC80364F019E8346D8F80000B0B38F
:102EE000344D4488C4F14001B14228BF314604EB5F
:102EF000010E00221FFA8EFE2A70761AA0F802E058
:102F000000F1080251B1013C224459441BF8014B25
:102F100002F8014F8B45F9D1B0F802E0BEF13F0F46
:102F20000BD8254A05211170002ED6D10198002317
:102F300089F8003003B0BDE8F08F402202800146DE
:102F40000420FFF747FA0022C8F80020E9E73A78A2
:102F50002AB3184D4AF2F9244FF0010A07E0013C68
:102F600016D02A78A2B900F033F93A78BAB1042021
:102F7000FFF7D8F90728F2D889F800A0FFF7F2FE8A
:102F8000C8F800000028ACD10C4B013C1870E8D107
:102F900001234FF0FF302B7003B0BDE8F08F00230A
:102FA0004FF0FF3089F8003003B0BDE8F08F00BF6C
:102FB000B496FF1FC496FF1FBC96FF1FBD96FF1F50
:102FC000C096FF1F00B583B002AB012103F8010DCD
:102FD0001846FFF773FF03B05DF804FBF8B5114B1B
:102FE0001B788BB1104E114D346801272F7064B1DE
:102FF0000F4A638800271770214623800420FFF7BB
:10300000E9F9376000232B70F8BDFFF7ABFE084BE2
:1030100028B1014604201C70FFF7DCF9F2E71F70AD
:10302000F0E700BFB496FF1FC096FF1FBD96FF1FBD
:10303000BC96FF1F38B50E4B1B7873B90D4C216839
:1030400061B103F0FF054B880B800420FFF7C2F944
:10305000256038BD084B01221A7038BDFFF782FE8B
:103060000028F7D00146BDE838400420FFF7B2B988
:10307000BD96FF1FC096FF1FBC96FF1F1A491B4A33
:103080001B48F8B50B681B4D046843F080730B6058
:10309000136843F0010313602E6814B915E06469E6
:1030A0009CB1237A002BFAD023682F681B68204636
:1030B00098472B68E188DB1B1B099AB28B42A280E0
:1030C00088BFE2806469002CEBD10A4B0A4A1B6876
:1030D00010880A4C9B1B1B0999B28342218001D99D
:1030E0001180F8BDF8BD00BFFCED00E0001000E06D
:1030F000D096FF1F041000E0D496FF1FD696FF1F46
:1031000003790F2B11D8094A10B4137072B608490D
:1031100004790A880123A34022EA03030B8062B6E4
:103120001022002310BC0271036070471A80004017
:10313000D896FF1FF8B572B106460F461446002513
:10314000336817F8011B1B6830469847013C05445B
:10315000F6D12846F8BD1546FBE700BF00B5064A84
:10316000036812885B6883B001A9ADF804200222CD
:10317000984703B05DF804FBDC57000008B5FDF785
:1031800075F9FDF779F900F023F8FAE7FFF77ABE51
:10319000FFF724BFFFF750BEFFF72ABEFFF764BE5C
:1031A00008461146FFF78ABE0846FFF70BBF00BF6F
:1031B000704700BF044B054A1A604FF47A71002231
:1031C00099601A711A737047DC96FF1FE857000068
:1031D00010B5154C237803B110BD01232370FFF700
:1031E00043FE58B900F0E8FA70B900F087FE88B9DC
:1031F00001F050F9A0B90023237010BDFFF7D8FFEC
:1032000000F0DAFA0028F0D001F0D4FA00F076FEEF
:103210000028EDD001F082FB01F03CF90028EAD053
:1032200001F030FCE7E700BFEC96FF1FF0B44D1E45
:103230002E46002400E00134B0FBF2F302FB130041
:10324000092800F130078ABF3730F8B2C0B206F85B
:10325000010F1846002BEED10A1953704CB11078AB
:1032600015F8016F28700133E01A834202F80169F2
:10327000F5DB0846F0BC70472DE9F84F214B1B6881
:1032800007460BB101221A70DFF888901E4D99F89D
:103290000040DFF884801D4E01343F2C8ABF4FF080
:1032A000000A5FFA84FA5446AB462B78A34216D143
:1032B000FEF700FE40281FDC33791B06F5D59BF88E
:1032C000003001333F2B86BF00221346DAB218F8D4
:1032D0000330DBB2F3712A702B78A342E8D00C499B
:1032E0000A4BFFB208F804700120BC22087089F86C
:1032F00000A0DA70BDE8F88FFF28D6DDFFF768FF81
:10330000D3E700BF8097FF1F7D97FF1F00A00640F7
:103310007C97FF1F8497FF1FF896FF1F274A2849B5
:103320001368F0B543F4806313600A78254F264E86
:10333000264D274C274900233B7033702B70237098
:103340000B70002A35D0152A26D0234B1B78012B71
:103350002AD0052B03D1214B4FF451721A60204B18
:10336000204C2149C0F34436C0F347151E7000F0CD
:103370001F005D7004224FF0020E88273C26402576
:1033800098729A704FF4005083F813E05A751F74C6
:10339000DE7025700860F0BD144B40F213321A60E5
:1033A0000D4B1B78012BD4D1114B4FF451721A6085
:1033B000D5E7104B40F213321A60C6E73480044060
:1033C0003897FF1FF496FF1FF596FF1F8497FF1F86
:1033D0007D97FF1F7C97FF1FF888FF1F1CC00440CC
:1033E00000A006402DE400E004E100E018C0044025
:1033F00044A0044040A00440144B14499B7803F0BF
:10340000EC0200F003031343420700F00F0248BF31
:1034100043F01003042A8B7013D00C4B0B4A5B79DA
:10342000C10603F0EF0348BF43F0100353719379D3
:10343000820603F0EF03054A48BF43F0100393717F
:1034400070478B7943F040038B71E6E700A006409C
:10345000214B1B685B053ED510B5204C237823B16A
:10346000FFF7B6FE2378002BFAD11D481D4A1E4BEC
:103470004FF4005400210460D1701B78E3B1152B88
:1034800003D11A4B40F203121A60194B1B7803F058
:103490007F03012B1AD0052B03D1164B40F20312E8
:1034A0001A60154B154816491A68002303700B70F3
:1034B0000AB10123137010BD124B40F203121A60BF
:1034C0000B4B1B7803F07F03012BE4D10E4B40F232
:1034D00003121A60E5E77047348004407C97FF1FB1
:1034E00084E100E000A006403897FF1F18C00440A8
:1034F000F888FF1F1CC00440F096FF1FF496FF1FC2
:10350000F596FF1F40A0044044A004400A4A38B585
:103510000546137803F0FF04002BFAD10121284659
:10352000FEF71EFE21462846FEF714FE034A044B12
:1035300052F835201A6038BD7C97FF1FCC5600002A
:103540008097FF1F09B140F08000174A1378984216
:1035500016D010B4154C246864050FD503F07F0312
:10356000012B1CD0052B11D0002900F07F0114BFC6
:103570006023442301290DD0052902D0107010BC0E
:1035800070470B4943F440730B60F7E7084B002486
:103590001C60E9E7074943F440730B60EEE7054B15
:1035A00000241C60E0E700BFF888FF1F348004405F
:1035B0001CC0044044A00440104B1A7882420AD038
:1035C0000F490968490505D5AAB1152A09D068B17E
:1035D000152801D0187070470A4A40F21331116063
:1035E000F8E7084A002111600028F1D1064A40F2AC
:1035F00013311160EEE704490A60E8E73897FF1FCE
:103600003480044018C0044040A004400D4B1B68A7
:1036100013F4806305D0212805D90B4B00201860D6
:10362000704718467047094B10B5074C53F83030B7
:1036300023600121FEF794FD236800221A70012007
:1036400010BD00BF34800440F096FF1FCC56000030
:103650000F4B1B6813F4806308D0122808D014287D
:1036600011D00C4A537B03F0FE03537300207047C4
:10367000094B40F202321A60064A537B43F00103C1
:10368000537301207047054B40F202321A60F3E792
:103690003480044000A006400CA0044014C0044044
:1036A000034B1B685B0501D5FFF7E6BD704700BF04
:1036B000348004402DE9F84F294B1B685A0548D542
:1036C000284B1B6805460BB101221A7005EB010A55
:1036D000554540D2DFF89C80234CDFF89C90234F67
:1036E0000AE015F8012B09F80B20214A0123AA450D
:1036F000137088F800602ED098F80030227803F11B
:10370000010BBBF13F0F86BF0026B3465FFA8BF675
:103710009345E6D1BC22FA7005E03A7913060BD442
:1037200022789345DDD1FEF7C5FB4028F5DDFF2863
:10373000F6DDFFF74DFDF3E7227801323F2A86BF21
:1037400000210A46D1B219F80220D2B2FA712170D2
:10375000E6E7BDE8F88F054BBC22DA70BDE8F88FCC
:10376000348004408097FF1F7D97FF1F00A0064014
:103770007C97FF1F8497FF1FF896FF1F10B5044C1E
:10378000237823B1FFF724FD2378002BFAD110BD55
:103790007C97FF1F064A074B1B781078DBB2C0B23C
:1037A00083422CBF3F3000F1FF30C01A704700BF8A
:1037B0007D97FF1F8497FF1F054A064B10781B78E3
:1037C000C0B2DBB2984238BF4030C01A704700BF69
:1037D000F496FF1FF596FF1F30B4154B154C1A7861
:1037E0002378D2B2DBB29A421ED001333F2B0ED9DE
:1037F0001149124B087819680023C0B2237021B117
:10380000D31A1A2B01DC00230B7030BC70470A4816
:103810000A49C05C0968DDB2C0B225700029F4D045
:103820009A4238BF4032EBE74FF0FF30EDE700BF80
:10383000F496FF1FF596FF1F3C97FF1FF096FF1FA2
:10384000084A094B12781B78DBB29A4207D0013341
:10385000402B28BF0023054AD05CC0B270474FF010
:10386000FF307047F496FF1FF596FF1F3C97FF1F30
:103870000D4B1B685B0516D530B40C4B0C4CDA783D
:103880000C480D4902F0CB024025DA705D74DA78FD
:1038900042F03402DA7023780268DBB20B700AB1AE
:1038A0000023137030BC70473480044000A00640F1
:1038B000F596FF1FF096FF1FF496FF1FF0B4384BEC
:1038C0001A7912F0300F2CD072B6997D01F0FF02F8
:1038D00000293DD062B6334F334938780D78334EE6
:1038E0001C46C0B2EDB2431C402BE17928BF002337
:1038F000AB4202F1FF32C9B21CBFF154184612F0BC
:10390000FF02F0D12A4B1B68C2B23A704BB1A842F9
:1039100036BFC5F14005401B40192728C4BF01220E
:103920001A701F49CA78D2B2150616D452060DD5A0
:103930001B4B1B795B0609D51E4B1F491B680022D8
:103940000A7003B11A70164B3C22DA70F0BC704753
:103950004022D9795A7462B6E3E70B791C06E5D5A3
:10396000164B174E1C783378E4B2DBB29C420ED073
:10397000144D01E0A3420AD00133402B28BF00239D
:103980000879E85CC0B2C871087D0728F2D9DBB2BB
:10399000034933700B79180644BF7C23CB70C5E70D
:1039A00000A00640F496FF1FF596FF1F3C97FF1FEF
:1039B000F096FF1F8097FF1F7C97FF1F8497FF1FC4
:1039C0007D97FF1FF896FF1F274A28491368F0B517
:1039D00043F4006313600A78254F264E264D274C8A
:1039E00027490023092A3B7033702B7023700B701A
:1039F00035D01A2A26D0234B1B780A2B2AD01F2B0E
:103A000003D1214B4FF451721A60204B204C2149B5
:103A1000C0F34436C0F347151E7000F01F005D7000
:103A200004224FF0020E88273C26402598729A7097
:103A30004FF4004083F813E05A751F74DE70257050
:103A40000860F0BD144B40F213321A600D4B1B7826
:103A50000A2BD4D1114B4FF451721A60D5E7104B99
:103A600040F213321A60C6E734800440F988FF1F21
:103A7000F897FF1F8D97FF1F0098FF1FF997FF1FF3
:103A80008C97FF1FFA88FF1F00D0044000B006404B
:103A90002FE400E004E100E004D0044010B0044052
:103AA0000CB00440144B14499B7803F0EC0200F076
:103AB00003031343420700F00F0248BF43F0100313
:103AC000042A8B7013D00C4B0B4A5B79C10603F0B0
:103AD000EF0348BF43F0100353719379820603F05C
:103AE000EF03054A48BF43F01003937170478B7989
:103AF00043F040038B71E6E700B00640224B1B68A1
:103B00001B053FD510B5214C237823B1FFF760FB8F
:103B10002378002BFAD11E481E4A1F4B4FF4004455
:103B200000210460D1701B78092B1CD01A2B03D103
:103B30001A4B40F203121A60194B1B7803F07F03F3
:103B40000A2B1AD01F2B03D1164B40F203121A6016
:103B5000154B164816491A68002303700B700AB1FA
:103B60000123137010BD134B40F203121A600C4B6B
:103B70001B7803F07F030A2BE4D10F4B40F20312B2
:103B80001A60E5E7704700BF348004408C97FF1F40
:103B900084E100E000B00640F988FF1F04D0044033
:103BA000FA88FF1F00D004408897FF1FF897FF1F77
:103BB0008D97FF1F0CB0044010B004400A4A38B57E
:103BC0000546137803F0FF04002BFAD101212846A3
:103BD000FEF7C6FA21462846FEF7BCFA034A044B14
:103BE00052F835201A6038BD8C97FF1FCC56000064
:103BF000FC97FF1F09B140F08000174A13789842E4
:103C000016D010B4154C246824050FD503F07F039B
:103C10000A2B1CD01F2B11D0002900F07F0114BFEC
:103C2000602344230A290DD01F2902D0107010BC34
:103C300070470B4943F440730B60F7E7084B0024CF
:103C40001C60E9E7074943F440730B60EEE7054B5E
:103C500000241C60E0E700BFFA88FF1F34800440A6
:103C600000D0044010B00440124B1A7882420CD0AD
:103C700011490968090507D5092A16D01A2A0AD058
:103C800009280DD01A2801D0187070470B4A40F24D
:103C900013311160F8E7094A002109281160F1D1B8
:103CA000074A40F213311160EEE7054A0021116026
:103CB000E6E700BFF988FF1F3480044004D00440C9
:103CC0000CB004400D4B1B6813F4006305D0212891
:103CD00005D90B4B00201860704718467047094BF8
:103CE00010B5074C53F8303023600121FEF738FA45
:103CF000236800221A70012010BD00BF34800440E8
:103D00008897FF1FCC5600000C4B1B6813F4006310
:103D100006D0172806D00A4A537B03F0FE035373DC
:103D200000207047074B064A40F202311960537B6E
:103D300043F0010353730120704700BF34800440F7
:103D400000B0064008B004402DE9F84F234B1B6833
:103D50001A053BD5224B1B680BB101221A70DFF804
:103D60009090204D99F80040DFF888801E4E013475
:103D7000272C8ABF4FF0000A5FFA84FA54460746A0
:103D8000AB462B789C4216D1FEF794F840281FDCF6
:103D900033791B06F5D59BF800300133272B86BFFE
:103DA00000221346DAB218F80330DBB2F3712A703E
:103DB0002B789C42E8D00D490B4BFFB20120BC226E
:103DC00008F80470087089F800A0DA70BDE8F88F70
:103DD000FF28D6DDFFF7FCF9D3E700BF34800440AD
:103DE000FC97FF1FF997FF1F00B006408C97FF1F3D
:103DF0000098FF1F9097FF1F2DE9F84F294B1B6874
:103E00001A0548D5284B1B6805460BB101221A70CC
:103E100005EB010A554540D2DFF89C80234CDFF8C2
:103E20009C90234F0AE015F8012B09F80B20214A3A
:103E30000123AA45137088F800602ED098F800304E
:103E4000227803F1010BBBF1270F86BF0026B34692
:103E50005FFA8BF69345E6D1BC22FA7005E03A7919
:103E600013060BD422789345DDD1FEF723F84028C2
:103E7000F5DDFF28F6DDFFF7ABF9F3E72278013235
:103E8000272A86BF00210A46D1B219F80220D2B2F1
:103E9000FA712170E6E7BDE8F88F054BBC22DA70B5
:103EA000BDE8F88F34800440FC97FF1FF997FF1F8F
:103EB00000B006408C97FF1F0098FF1F9097FF1FD0
:103EC00010B5044C237823B1FFF782F92378002B37
:103ED000FAD110BD8C97FF1F064A074B1B7810784C
:103EE000DBB2C0B283422CBF273000F1FF30C01AD2
:103EF000704700BFF997FF1F0098FF1F054A064B48
:103F000010781B78C0B2DBB2984238BF4030C01A7C
:103F1000704700BFF897FF1F8D97FF1F30B4154BF8
:103F2000154C1A782378D2B2DBB29A421ED00133F4
:103F30003F2B0ED91149124B087819680023C0B2E3
:103F4000237021B1D31A1A2B01DC00230B7030BC73
:103F500070470A480A49C05C0968DDB2C0B22570E2
:103F60000029F4D09A4238BF4032EBE74FF0FF30DF
:103F7000EDE700BFF897FF1F8D97FF1FB897FF1F52
:103F80008897FF1F084A094B12781B78DBB29A42C8
:103F900007D00133402B28BF0023054AD05CC0B2B4
:103FA00070474FF0FF307047F897FF1F8D97FF1F46
:103FB000B897FF1F0D4B1B681B0516D530B40C4B73
:103FC0000C4CDA780C480D4902F0CB024025DA702F
:103FD0005D74DA7842F03402DA7023780268DBB27A
:103FE0000B700AB10023137030BC7047348004405A
:103FF00000B006408D97FF1F8897FF1FF897FF1F9F
:10400000F0B4384B1A7912F0300F2CD072B6997D7B
:1040100001F0FF0200293DD062B6334F33493878B2
:104020000D78334E1C46C0B2EDB2431C402BE179F3
:1040300028BF0023AB4202F1FF32C9B21CBFF154CA
:10404000184612F0FF02F0D12A4B1B68C2B23A7038
:104050004BB1A84236BFC5F14005401B4019272887
:10406000C4BF01221A701F49CA78D2B2150616D4ED
:1040700052060DD51B4B1B795B0609D51E4B1F49FC
:104080001B6800220A7003B11A70164B3C22DA70CA
:10409000F0BC70474022D9795A7462B6E3E70B79D5
:1040A0001C06E5D5164B174E1C783378E4B2DBB20C
:1040B0009C420ED0144D01E0A3420AD00133282BBC
:1040C00028BF00230879E85CC0B2C871087D0728C2
:1040D000F2D9DBB2034933700B79180644BF7C2355
:1040E000CB70C5E700B00640F897FF1F8D97FF1F04
:1040F000B897FF1F8897FF1FFC97FF1F8C97FF1F24
:104100000098FF1FF997FF1F9097FF1F2DE9F84FA9
:10411000214B1B6807460BB101221A70DFF888900B
:104120001E4D99F80040DFF884801D4E0134272C85
:104130008ABF4FF0000A5FFA84FA5446AB462B78E8
:10414000A34216D1FDF7B6FE40281FDC33791B06CB
:10415000F5D59BF800300133272B86BF002213468C
:10416000DAB218F80330DBB2F3712A702B78A3426D
:10417000E8D00C490A4BFFB208F804700120AC22C9
:10418000087089F800A0DA70BDE8F88FFF28D6DD46
:10419000FFF71EF8D3E700BF7898FF1F7598FF1F41
:1041A00000C006407498FF1F7C98FF1F0C98FF1FEB
:1041B000184A19491368F0B543F48053174C184D49
:1041C000184FDFF878E01360174E184A0023237069
:1041D0008EF80030164C2B700B703B7040F213378A
:1041E0003760144D1449C0F344364FF451772760BB
:1041F0001670C0F347142C2700F01F00402654709F
:1042000090724FF4003493701374D7702E700C605A
:10421000F0BD00BF348004407598FF1F0898FF1F51
:104220007C98FF1F7498FF1F08C0044000C0064020
:104230000CC0044031E400E004E100E00998FF1FF5
:10424000144B14499B7803F0EC0200F00303134372
:10425000420700F00F0248BF43F01003042A8B709E
:1042600013D00C4B0B4A5B79C10603F0EF0348BF38
:1042700043F0100353719379820603F0EF03054A6C
:1042800048BF43F01003937170478B7943F04003AC
:104290008B71E6E700C00640F8B5124B1B68DB04E3
:1042A0001DD5114C237823B1FEF792FF2378002B04
:1042B000FAD10E4B0E4F0F4E0F4D104C10481149B6
:1042C0004FF400321A600023FB7040F20312326098
:1042D0002A60226803700B7012B101231370F8BDBD
:1042E000F8BD00BF348004407498FF1F84E100E0F3
:1042F00000C0064008C004400CC004400498FF1FE2
:104300000898FF1F0998FF1F0A4A38B50546137819
:1043100003F0FF04002BFAD101212846FDF720FF0E
:1043200021462846FDF716FF034A044B52F8352074
:104330001A6038BD7498FF1FCC5600007898FF1F94
:1043400009B140F080000F4A1378984219D010B498
:104350000D4C2468E40412D503F07F03082B02D12E
:104360000A4B00241C60002900F07F0314BF602169
:104370004421082B03D1054B41F4407119601070A2
:1043800010BC7047FB88FF1F348004400CC0044001
:10439000704700BF0D4B1B6813F4805305D02128D4
:1043A00005D90B4B00201860704718467047094B21
:1043B00010B5074C53F8303023600121FDF7D0FED3
:1043C000236800221A70012010BD00BF3480044011
:1043D0000498FF1FCC5600000C4B1B6813F480534D
:1043E00006D00E2806D00A4A537B03F0FE0353730F
:1043F00000207047074B064A40F202311960537B98
:1044000043F0010353730120704700BF3480044020
:1044100000C0064004C00440034B1B68DB0401D508
:10442000FFF774BE704700BF3480044070B5094E7A
:1044300004464518AC4204F101040AD03368DB0499
:10444000F8D514F8010CFFF761FEAC4204F1010449
:10445000F4D170BD3480044010B5044C237823B1EE
:10446000FEF7B6FE2378002BFAD110BD7498FF1F1B
:10447000064A074B1B781078DBB2C0B283422CBFD0
:10448000273000F1FF30C01A704700BF7598FF1F3A
:104490007C98FF1F054A064B10781B78C0B2DBB230
:1044A000984238BF4030C01A704700BF0898FF1FBD
:1044B0000998FF1F30B4154B154C1A782378D2B2E7
:1044C000DBB29A421ED001333F2B0ED91149124B59
:1044D000087819680023C0B2237021B1D31A1A2BAF
:1044E00001DC00230B7030BC70470A480A49C05CED
:1044F0000968DDB2C0B225700029F4D09A4238BFF5
:104500004032EBE74FF0FF30EDE700BF0898FF1FA8
:104510000998FF1F3498FF1F0498FF1F084A094B92
:1045200012781B78DBB29A4207D00133402B28BFA8
:104530000023054AD05CC0B270474FF0FF3070478F
:104540000898FF1F0998FF1F3498FF1F054B064A64
:104550001B7806491268DBB20B700AB10023137096
:10456000704700BF0998FF1F0498FF1F0898FF1F9E
:1045700030B42B4B1A7994061FD52A48DA79037880
:10458000294901333F2B0978C8BF00238B42D2B29F
:1045900003D0264CD9B2E2540170254A116861B1AA
:1045A000244A1278D2B2934236BFC2F140029B1A1B
:1045B0009B18272BC4BF01230B70194AD378DBB299
:1045C000180611D45A060DD5154B1B795B0609D573
:1045D000194B1A491B6800220A7003B11A70104B5C
:1045E0002C22DA7030BC704711790906EAD51449DB
:1045F00010480C780178C9B28C420DD04A1C272A89
:1046000084BF00210A460F4D054C98BFD1B2AA5C69
:10461000D2B2E2710170D5E76C21D170D2E700BF50
:1046200000C006400898FF1F0998FF1F3498FF1F1D
:104630000498FF1F7598FF1F7898FF1F7498FF1F3D
:104640007C98FF1F0C98FF1F70B584B072B6194B91
:10465000194D1A48702241260F2480211A702E709D
:104660001A460470197013781B06FCD5144B186891
:1046700062B6144B144C984298BF00EB800001A91D
:1046800098BF40000A22FEF7D1FD01A92046002371
:1046900011F8012B01333AB10A2B20F8022FF7D180
:1046A0001623237004B070BD5B00DBB2237004B02E
:1046B00070BD00BF0000024007000240060002403B
:1046C000080002407F9698008889FF1F0368C9B2DE
:1046D0001B6818470368C9B21B6818470368C9B24A
:1046E0001B6818470368C9B21B68184708B5084615
:1046F000FEF7D6FF012008BD08B50846FEF7D0FF3B
:10470000012008BD38B508460D4600F0F9FC044606
:1047100001462846FEF7CEFF204638BD10B50846B4
:1047200014461146FEF7C6FF204610BDFFF732B80B
:10473000FFF79EB808B50846FEF78AFF003018BF9D
:10474000012008BD08B50846FEF760FF003018BF1D
:10475000012008BD08461146FEF7F4BE0846FEF7E4
:104760002BBF00BF0846FEF7D1BE00BFFEF770BEEC
:104770004B0803F1376000F5D830B0FBF1F0FEF7DD
:10478000CDBD00BF10B54B0803F13760144600F5EE
:10479000D830B0FBF1F0FEF7C1FD2046BDE8104077
:1047A000FEF72ABEFEF7EABFFFF74AB8FFF714B8D4
:1047B000FFF702B8704700BF044B054A1A604FF478
:1047C0007A71002299601A711A7370478098FF1FDE
:1047D0006458000008B50846FFF7B6FA012008BD86
:1047E00008B50846FFF7B0FA012008BD38B50846FD
:1047F0000D4600F085FC044601462846FFF7FCFA0A
:10480000204638BD10B5084614461146FFF7F4FAA5
:10481000204610BDFFF760BBFFF7CCBB08B50846CC
:10482000FFF772FA003018BF012008BD08B508462E
:10483000FFF748FA003018BF012008BD08461146AE
:10484000FFF7D8B90846FFF70FBA00BF0846FFF7D1
:10485000B5B900BFFFF752B94B0803F1376000F557
:10486000D830B0FBF1F0FFF7AFB800BF10B54B0880
:1048700003F13760144600F5D830B0FBF1F0FFF7D4
:10488000A3F82046BDE81040FFF70CB9FFF718BBAE
:10489000FFF778BBFFF742BBFFF730BB0368064A60
:1048A0001B68934205D110B5C8B2FFF74DFA01203D
:1048B00010BDC9B2184700BFE14700000368064AAF
:1048C0001B68934205D110B5C8B2FFF73DFA01202D
:1048D00010BDC9B2184700BFE14700000368064A8F
:1048E0001B68934205D110B5C8B2FFF72DFA01201D
:1048F00010BDC9B2184700BFE14700000368064A6F
:104900001B68934205D110B5C8B2FFF71DFA01200C
:1049100010BDC9B2184700BFE1470000704700BF93
:10492000044B054A1A604FF47A71002299601A719B
:104930001A7370479098FF1FC458000008B50846C6
:10494000FFF76AFD012008BD08B50846FFF764FDC2
:10495000012008BD38B508460D4600F0D1FB0446DD
:1049600001462846FFF762FD204638BD10B50846CF
:1049700014461146FFF75AFD204610BDFFF778BDDB
:10498000FFF7E4BD08B50846FFF726FD003018BF65
:10499000012008BD08B50846FFF7FCFC003018BF31
:1049A000012008BD08461146FFF7CABC0846FFF7BC
:1049B000EFBC00BF0846FFF7A7BC00BFFFF76CBC09
:1049C0004B0803F1B76000F55840B0FBF1F0FFF77A
:1049D000EFBB00BF10B54B0803F1B760144600F5FC
:1049E0005840B0FBF1F0FFF7E3FB2046BDE8104074
:1049F000FFF726BCFFF730BDFFF790BDFFF75ABDAC
:104A0000FFF748BD0368064A1B68934205D110B5FD
:104A1000C8B2FFF701FD012010BDC9B2184700BFA1
:104A2000494900000368064A1B68934205D110B546
:104A3000C8B2FFF7F1FC012010BDC9B2184700BF92
:104A4000494900000368064A1B68934205D110B526
:104A5000C8B2FFF7E1FC012010BDC9B2184700BF82
:104A6000494900000368064A1B68934205D110B506
:104A7000C8B2FFF7D1FC012010BDC9B2184700BF72
:104A800049490000704700BF044B054A1A604FF4C3
:104A90007A71002299601A711A737047A098FF1FEB
:104AA000245900000B460146184600F001B800BF2B
:104AB00013460A460146022000F090BB014B1868DD
:104AC000704700BFC88DFF1F70B50F4E0F4D761B8E
:104AD000B61018BF002405D0013455F8043B9847A0
:104AE000A642F9D10A4E0B4D761B00F049FFB610D5
:104AF00018BF002406D0013455F8043B9847A6425D
:104B0000F9D170BD70BD00BF8C5900008C590000F8
:104B1000DC5900008C590000024B0146186800F077
:104B200003B800BFC88DFF1F2DE9F04F01F10B0541
:104B3000162D83B0064640F29F8035F0070500F140
:104B4000BF80A94200F2BC8000F0A6FAB5F5FC7F58
:104B5000C0F09C826B0A00F0BA80042B00F28381C3
:104B6000A80900F1390E4FEA4E033830C44F07EB65
:104B70008303A3F108015C68A14207D1ACE0002ADD
:104B800080F2AC80E468A14200F0A680636823F064
:104B900003035A1B0F2AF2DDB9493C6901F1080EE3
:104BA000744500F0B381636823F003035A1B0F2A96
:104BB00000F39981002AC1F814E0C1F810E080F2F6
:104BC0009E80B3F5007F80F06781DB0803F1010C64
:104BD00001229B1002FA03F34A6851F83C80C4F8A2
:104BE000088001EBCC091A43A9F10803E3604A608D
:104BF00041F83C40C8F80C40831001249C4094428A
:104C000000F28A80144206D120F0030064001442AE
:104C100000F10400FAD007EBC009CC468046DCF86E
:104C20000C108C4507D173E1002A80F28181C9689C
:104C30008C4500F06D814B6823F003035A1B0F2A4B
:104C4000F2DD0C46D1F80CC054F8088F4B1945F032
:104C500001054D6042F00101C8F80CC03046CCF8A7
:104C600008807B613B61C3F80CE0C3F808E0596041
:104C70009A5000F013FA1FE0102921D800F00CFA26
:104C80001025062302207E4F07EB8303A3F10802C1
:104C90005C68944200F045816368E168A56823F090
:104CA0000303234430465A68E96042F001028D60F4
:104CB0005A6000F0F3F90834204603B0BDE8F08FE5
:104CC00000240C232046336003B0BDE8F08F80231E
:104CD0004FF0400E3F2049E770465DE72344E1680E
:104CE0005A68A56842F00102E96030468D605A605A
:104CF00000F0D4F90834204603B0BDE8F08F234417
:104D000030465A6842F001025A6000F0C7F9083490
:104D1000204603B0BDE8F08FBC68636823F0030849
:104D2000A84504D3C5EB08030F2B00F38C80554B2B
:104D3000DFF860911A68D9F8003001332A4404EB97
:104D4000080A00F0608102F580520F3222F47F627F
:104D500022F00F0211463046019200F0A1F9B0F1A5
:104D6000FF3F8346019A00F05881824500F2FC80A3
:104D7000454B1968DA451144196000F05381D9F8A0
:104D80000000DFF810E101301BBFCAEB0B0A5144F1
:104D9000CEF800B019601BF0070100F01781C1F1D7
:104DA0000800C1F58051834408315A44C2F30B0214
:104DB000C2EB010949463046019300F071F9431CEA
:104DC000019B00F03F81CBEB00024A4442F001021C
:104DD0001968C7F808B04944BC42CBF804201960F0
:104DE000DFF8A49016D0B8F10F0F40F2FD80626892
:104DF000A8F10C0323F00703E01802F001024FF0C2
:104E0000050E1A430F2B6260C0F804E0C0F808E0FA
:104E100000F21C811D4BBC681A68914288BF196062
:104E20001B4B1A689142626888BF196022F0030226
:104E30009542A2EB050301D80F2B04DC304600F0AD
:104E40002DF9002438E7621943F0010345F001050C
:104E500065603046BA60536000F020F9083420469F
:104E600003B0BDE8F08F142B71D9542B00F2A4804D
:104E7000280B00F16F0E4FEA4E036E3076E600BF4E
:104E8000CC8DFF1FB898FF1FBC98FF1FB498FF1F61
:104E9000B098FF1FD891FF1F5A0A042A5ED9142A1E
:104EA00000F2B38002F15C0149005B3207EB810C38
:104EB00057F82110DFF8DC81ACF1080C8C4500F0CC
:104EC00088804A6822F00302934202D289688C45A6
:104ED000F7D1D1F80CC07A68C4F80CC0A160CCF846
:104EE0000840CC6088E6631942F0010745F00105EF
:104EF000656030464B610B61C3F80CE0C3F808E015
:104F00005F609A50083400F0C9F8D5E64A6873E645
:104F100008F1010818F0030F0CF1080C7FF47FAEC4
:104F200030E0DC68A34208BF02303FF435AEB3E6A0
:104F30000B440C465A68C96854F8085F42F00102F5
:104F40005A603046E9608D6000F0A8F8B4E603F1DD
:104F50005C0E03F15B004FEA4E0307E69A0902F18B
:104F6000390149003832A1E7BC424A4B3FF400AF57
:104F70009C68626822F003025AE759F8083999459B
:104F800040F0828010F0030F00F1FF30F5D17B6814
:104F900023EA04037B6064009C423FF6BDAE002C14
:104FA0003FF4BAAE1C4240467FF435AE64001C426A
:104FB00000F10400FAD02EE6B3F5AA7F18D8E80B6A
:104FC00000F1780E4FEA4E037730CFE54FF4805171
:104FD000EBE60121D8F80430921001FA02F21A43EC
:104FE000C8F80420614677E70123CBF8043025E7B1
:104FF00040F25452934220D8A80C00F17D0E4FEAA3
:105000004E037C30B2E51032A4E6542A26D81A0B9F
:1050100002F16F0149006E3248E7BC68626822F015
:10502000030205E7CAF30B0000287FF4A8AE424450
:10503000BB6842F001025A60ECE6FE234FF07F0E9F
:105040007E2093E501224FF00009C1E604F108013A
:10505000304600F087F9D9F80010DBE6B2F5AA7FF8
:1050600005D8DA0B02F17801490077321EE740F2E9
:1050700054518A4205D89A0C02F17D0149007C32D4
:1050800014E7FE217E2211E77B6884E7E808431CD1
:105090005B00F8E5CC8DFF1F704700BF704700BF75
:1050A00038B5074C0023054608462360FCF7ECFEA4
:1050B000431C00D038BD2368002BFBD02B6038BDCB
:1050C000F898FF1FFFFFFFFFFFFFFFFFFFFFFFFF3E
:1050D000FFFFFFFFFFFFFFFFFFFFFFFFFFFFFFFFE0
:1050E000FFFFFFFFFFFFFFFFFFFFFFFFFFFFFFFFD0
:1050F000FFFFFFFFFFFFFFFFFFFFFFFFFFFFFFFFC0
:1051000090F800F06DE9024520F007016FF0000C07
:1051100010F0070491F820F040F049804FF00004AF
:105120006FF00700D1E9002391F840F000F108008A
:1051300082FA4CF2A4FA8CF283FA4CF3A2FA8CF3C2
:105140004BBBD1E9022382FA4CF200F10800A4FA29
:105150008CF283FA4CF3A2FA8CF3E3B9D1E904237D
:1051600082FA4CF200F10800A4FA8CF283FA4CF3B4
:10517000A2FA8CF37BB9D1E9062301F1200182FA6E
:105180004CF200F10800A4FA8CF283FA4CF3A2FA74
:105190008CF3002BC6D0002A04BF04301A4612BA82
:1051A000B2FA82F2FDE8024500EBD2007047D1E985
:1051B000002304F00305C4F100004FEAC50514F014
:1051C000040F91F840F00CFA05F562EA05021CBFE5
:1051D00063EA050362464FF00004A9E72DE9F047B2
:1051E000254C2568D5F8484106468846924699469A
:1051F000C4B360681F2817DC431C76B104EB80053C
:105200000122C5F888A0D4F8881182401143022EEB
:10521000C4F88811C5F808911ED00230636044F8C4
:1052200020800020BDE8F087144B03B34FF4C87012
:10523000FFF772FC0446D0B1D5F84831002780E86A
:105240008800C5F8484138460123C4F88871C4F87D
:105250008C71002EE1D0D1E7D4F88C110A43C4F848
:105260008C21DAE705F5A674C5F84841C1E74FF08F
:10527000FF30BDE8F08700BF7C590000194B0000EB
:10528000024B13B1024800F005B87047000000005F
:10529000A1520000002301461A461846FFF79EBFA0
:1052A00038B5074D074C2C1BA41005D0013C55F810
:1052B000043D9847002CF9D1BDE8384000F08EBB82
:1052C0000000000000000000F8B5234F0C46064621
:1052D000FFF7E2FEBB685D6825F00305291B01F6B8
:1052E000EF7121F47F6121F00F01A1F58054B4F535
:1052F000805F07DB00213046FFF7D2FEBB682B44FE
:10530000984204D03046FFF7C9FE0020F8BD614244
:105310003046FFF7C5FE01300DD0104BBA68196852
:105320002D1B45F001053046091B55601960FFF73C
:10533000B5FE0120F8BD00213046FFF7B1FEBA6886
:10534000831A0F2BDEDD064C0449246843F0010369
:10535000001B53600860D5E7CC8DFF1FBC98FF1F72
:10536000D891FF1F002945D02DE9F0410D46804618
:10537000FFF792FE55F8047C6A4927F00103A5F176
:105380000804E2188E685068B24220F0030062D030
:10539000FE0750600BD455F8087CE41B01F1080EA1
:1053A000A56875453B446FD0E768EF60BD60151890
:1053B0006D68ED0742D543F001026260E350B3F53A
:1053C000007F18D2DB085A1C4D6851F83270A76074
:1053D00001209B1000FA03F301EBC2001D430838C3
:1053E000E0604D6041F83240FC604046BDE8F0416D
:1053F000FFF754BE70475A0A042A53D89A0902F19B
:1054000039077F0002F1380501EB870051F82720AA
:105410004449083890424DD0516821F003018B4235
:1054200002D292689042F7D1D068E060A2608460B6
:10543000D4604046BDE8F041FFF730BE95683A4F72
:10544000BD4203443FD0D068E86043F0010285606C
:105450006260E350B3E7FF07034407D455F8082C14
:10546000A41A1344A068E268C26090602F4A1268D0
:1054700043F00100934260608C60B6D32C4B4046F1
:105480001968FFF721FFB0E711184968C90744D42C
:105490009168D268CA60034443F001009160606083
:1054A000E350A2E7142A17D802F15C077F0002F14B
:1054B0005B05A9E7AA104B68012505FA02F2134320
:1054C0004B600246B1E743F001024C610C61E560BC
:1054D000A5606260E35088E7542A06D81A0B02F1EF
:1054E0006F077F0002F16E058EE7B2F5AA7F06D83E
:1054F000DA0B02F178077F0002F1770584E740F2CA
:105500005450824206D89A0C02F17D077F0002F1C6
:105510007C0579E7FE277E2576E743F0010262608D
:10552000E35062E7CC8DFF1FD48DFF1FD491FF1F86
:10553000B898FF1F50696E67746573742F0A000076
:10554000524F4C453A20000053657474696E6720D1
:105550007570206368616E6E656C000053657474CD
:10556000696E6720757020706970657300000000B7
:105570005374617274206C697374656E696E670030
:10558000456E64206F662073657475702070726F4D
:10559000636573732E205374617274696E67206C37
:1055A0006F6F70004E6F772073656E64696E672051
:1055B000000000006F6B2E2E2E0A00006661696CE1
:1055C00065642E0A000000004661696C65642C2049
:1055D000726573706F6E73652074696D6564206F9A
:1055E00075742E0A00000000476F74207265737096
:1055F0006F6E736520000000726F756E642D74729B
:1056000069702064656C61793A200000476F7420EE
:105610007061796C6F61642800000000292000002F
:105620000A00000048656C6C6F20576F726C640054
:1056300052656365697665643A200000696E76613B
:105640006C69640050696E67206F7574000000001B
:10565000506F6E67206261636B0000000000000005
:1056600000000000A916000035310000348004401D
:10567000400000001211FFFFFF02020000001310A3
:10568000FFFFFF0202000000180000003480044009
:10569000800000001EFFFFFFFF02000000001DFF52
:1056A000FFFFFF02000000001900000000000000E2
:1056B0000000000089190000B11900004119000024
:1056C0004D1900006D190000851900004008FE43C7
:1056D00040A004404408FE4344A004400018FE4398
:1056E00000C004403000FE43309004403400FE43CC
:1056F000349004401C18FE431CC004401018FE43A4
:1057000010C004400818FE4308C004400C18FE43B3
:105710000CC004400C10FE430CB004401010FE43BB
:1057200010B004401810FE4318B004401C10FE4393
:105730001CB004401410FE4314B004400418FE438F
:1057400004C004400010FE4300B004400008FE43C3
:1057500000A004400408FE4304A004400C08FE43DB
:105760000CA004400808FE4308A004401418FE439F
:1057700014C004401818FE4318C004400410FE432F
:1057800004B004400810FE4308B004401400FE4377
:10579000149004404C08FE434CA004400420FE43F7
:1057A00004D004402410FE4324B004402010FE43E3
:1057B00020B004402810FE4328B004402C10FE43C3
:1057C0002CB004400020FE4300D004404808FE43B3
:1057D00048A004401000FE43109004400D0AFFFF53
:1057E0000000000000000000A9310000A13100000D
:1057F0009D31000099310000953100009131000089
:105800008D3100000015191500010000FC88FF1FF4
:1058100012000000000200002889FF1F4300000062
:10582000000300008489FF1F000000000103090439
:105830001089FF1F00000000020309046C89FF1F8C
:1058400000000000030309048889FF1F0000000016
:105850000000000000000000000000000000000048
:1058600000000000F94600001D470000B14700009D
:10587000AD470000A9470000A547000071470000A0
:10588000854700006D470000654700005D47000048
:1058900055470000454700003547000031470000EC
:1058A0002D470000CD460000D5460000DD46000033
:1058B000E546000005470000ED460000000000003E
:1058C00000000000E1470000054800009948000082
:1058D00095480000914800008D480000594800009C
:1058E0006D480000554800004D4800004548000044
:1058F0003D4800002D4800001D48000019480000E8
:1059000015480000BD480000DD480000FD480000CB
:105910009D480000ED470000D54700000000000052
:1059200000000000494900006D490000014A0000E4
:10593000FD490000F9490000F5490000C149000097
:10594000D5490000BD490000B5490000AD4900003F
:10595000A5490000954900008549000081490000E3
:105960007D490000254A0000454A0000654A0000C4
:10597000054A0000554900003D490000A089FF1F6D
:10598000F8B500BFF8BC08BC9E46704781520000C5
:105990003504000051050000B90D0000D10D0000D4
:1059A000010E0000190E0000310E0000490E00002B
:1059B000610E0000790E0000910E0000A90E00009B
:1059C000C10E00007D130000A51B0000B5310000D2
:0C59D000B947000021490000894A00008E
:0459DC00F8B500BF5B
:1059E0000A0B0C0D0E0F00001112131415160000F7
:0659F000000102030405A2
:1059F60038B5084B1C681C6054B1074D94FAA4F3E3
:105A0600B3FA83F355F823309847631E1C40F5D14B
:105A160038BD00BFA0D00440EC88FF1F38B5084B46
:105A26001C681C6054B1074D94FAA4F3B3FA83F3CF
:105A360055F823309847631E1C40F5D138BD00BF8A
:105A4600A0C00440CC88FF1F38B5084B1C681C60FA
:105A560054B1074D94FAA4F3B3FA83F355F82330FF
:105A66009847631E1C40F5D138BD00BFA0B0044066
:105A76009C88FF1F38B5084B1C681C6054B1074D45
:105A860094FAA4F3B3FA83F355F823309847631EC8
:105A96001C40F5D138BD00BFA0A004404C88FF1FB4
:105AA60038B5084B1C681C6054B1074D94FAA4F332
:105AB600B3FA83F355F823309847631E1C40F5D19B
:105AC60038BD00BFA09004401488FF1F00000000EE
