:1000000000000320D101000079220000312200000D
:100010003122000031220000312200003122000094
:10002000312200003122000031220000792200003C
:1000300079220000312200007922000021220000F4
:100040007922000079220000792200007922000044
:100050007922000079220000792200007922000034
:100060007922000079220000792200007922000024
:100070007922000079220000792200007922000014
:100080007922000079220000792200007922000004
:1000900079220000792200007922000079220000F4
:1000A000611F00006D1F000079220000792200000E
:1000B000792200007922000079220000313D000001
:1000C000792200008D440000792200000D4A0000D2
:1000D00079220000255000007922000079220000DA
:1000E00079220000792200007922000079220000A4
:1000F0007922000079220000792200007922000094
:100100007922000079220000792200007922000083
:1001100079220000E1270000792200007922000006
:100120007922000079220000792200007922000063
:100130007922000079220000792200007922000053
:100140001D34000079220000715500007922000062
:100150007922000079220000792200007922000033
:100160007922000079220000791F00007922000026
:100170007922000079220000792200007922000013
:100180007922000079220000792200007922000003
:100190007922000079220000B15B00007922000082
:1001A00079220000792200007922000079220000E3
:1001B00079220000792200007922000079220000D3
:1001C00079220000792200007922000079220000C3
:1001D0005C4B4CF2205210B51A804DF628121A8052
:1001E00000BF00BF02F04CF8574B4FF030621A606E
:1001F000564A9A60564ADA60564B4FF470021A60BB
:10020000554B564A1A60564A136813F4807304D14A
:1002100054490B604FF4A8531360534B1A781107DD
:1002200003D51A7842F008021A70504B5049AA229E
:100230001A70504A504B8B4204D252F8040F43F8C4
:10024000040BF8E74D4B4E4900228B4202D243F893
:10025000042BFAE74B494C4A002352F8230041F89B
:1002600023000133742BF8D1484B494A802103F80D
:10027000011B9342FBD1474B424A1A60464B8A22EC
:100280001A70A3F5805324225A70A0221A709A790A
:100290009207FCD59A79D406FCD4404A937903F0AE
:1002A0000C03082BFAD13E4B60221A7002331A78E5
:1002B000802AFCD1394B01221A715D225A719A7938
:1002C0009006FCD59979354A4906FBD5354B364918
:1002D00019600021596020231370937903F00C03F7
:1002E0000C2BFAD1314B324A1A60324B324A1A6027
:1002F00000225A60072243F8042C304AC3F80C2D20
:1003000062B602F0FFF8174B1B68DA0705D52C48D8
:1003100002F088F82B4B2C4A1A602C4B1B785B069A
:1003200009D5284C284B22689A4204D1244802F06F
:1003300079F80023236006F0FDF801F0A7FF03F031
:10034000EFF8FEE70E20054030800440823F0400B5
:100350000100002B88ED00E0002008E0030000858C
:1003600010D0034014D0034002D0074000E0074003
:100370003410FF1F7A7600003007FF1F3810FF1F70
:100380008419FF1F0002FF1F0000000000E400E0CE
:1003900064E400E008ED00E0005006400040064044
:1003A00001E007404480044000000602048004404D
:1003B000C010070014E000E01FBF02000000202072
:1003C0001A58665A1CE00340A5C3945A00F007402F
:1003D000FFFFFFFFFFFFFFFFFFFFFFFFFFFFFFFF2D
:1003E000FFFFFFFFFFFFFFFFFFFFFFFFFFFFFFFF1D
:1003F000FFFFFFFFFFFFFFFFFFFFFFFFFFFFFFFF0D
:10040000FFFFFFFFFFFFFFFFFFFFFFFFDEF9FFFF23
:1004100010B5054C237833B9044B13B10448AFF33E
:1004200000800123237010BD3810FF1F0000000062
:1004300068760000084B10B51BB108490848AFF3B7
:1004400000800848036803B910BD074B002BFBD0A0
:10045000BDE81040184700BF000000003C10FF1F1F
:10046000687600003410FF1F00000000014800F013
:100470000BB800BF5410FF1F014800F03BB800BF8D
:100480005410FF1FFFFFFFFF154A1649106870B593
:10049000154C164E0B783BB123789B0704D013689C
:1004A00035685B1B182B04D813681B1AB3F57A7FC9
:1004B000F0D90F4800F0A4FA07A3D3E900230021E4
:1004C0000B4800F001FA0A48032100F031FA08480D
:1004D000BDE8704000F09AB9E1F0F0F0F0000000E3
:1004E000B414FF1F9815FF1FB015FF1F7C19FF1FC5
:1004F0005810FF1F00B5134889B000F0D5F9F0B1CE
:100500000023202269460F4802930093019303932E
:10051000049305930693079300F0CAF90A210A4849
:1005200002F09CFE094802F0EBFF684606F008FB6B
:100530000146684602F092FE044802F0E1FF09B06D
:100540005DF804FB5810FF1F78700000C015FF1FF6
:10055000034A044B12781978034800F045B900BFEC
:100560003407FF1F3807FF1F5810FF1F38B5044618
:1005700001200D4600F0FCFA002000F021FB0448A9
:1005800000F06AFCE9B26078BDE8384001F05CBF79
:100590000320003838B50C4600210546FFF7E6FF7A
:1005A0000E4B04F01F044FF00042DA6218465C6301
:1005B000C36A0A4A002BFBDA4FF00041FF23906B1D
:1005C000D16211465363CB6A044A002BFBDA946B69
:1005D00028460121FFF7CAFFE0B238BD00C0024043
:1005E000F8B50E46002114461F460546FFF7BEFF2C
:1005F000134A06F01F0343F020034FF00041D1627D
:1006000010465363C26A0E49002AFBDA8E6B781ECD
:10061000F6B2C0B277B12044621E0F464FF00044DC
:1006200012F8013FCC624B63CB6A002BFCDA8242AA
:10063000BB6BF5D128460121FFF798FF3046F8BD86
:1006400000C0024070B50C4600211646054604F075
:100650001F04FFF78BFF0F4B44F020044FF00042C4
:10066000DA6218465C63C36A0A49002BFBDA8C6BBA
:100670004FF00043CB62E4B208464E63C36A054ABA
:10068000002BFBDA28460121936BFFF76FFF204612
:1006900070BD00BF00C002402DE9F04703790D4650
:1006A0009A42817928BF1A4606469146002947D1C9
:1006B0009B1A5FFA83F808F1FF34E4B23046002158
:1006C000FFF754FF20484FF000426123C2624363AA
:1006D000C16A1D4B0029FBDA9F6B09F1FF305FFAFD
:1006E00087FAC0B2B9F1000F11D02844691E1A462A
:1006F0009C464FF00047FF25D7625563D36A002B15
:10070000FCDADCF8383001F8013F8142F4D1B8F16D
:10071000000F0ED00C4A4FF000451046FF21D56265
:100720005163D36A002BFCDA013CE4B2FF2C836BEB
:10073000F5D130460121FFF719FF5046BDE8F0879B
:10074000FF244FF00008B9E700C0024038B500218F
:100750000546FFF70BFF094B4FF00041E222D9623B
:1007600019465A63CB6A054A002BFBDA946B28467C
:100770000121FFF7FBFEE0B238BD00BF00C0024020
:1007800038B500210546FFF7F1FE094B4FF0004157
:10079000E122D96219465A63CB6A054A002BFBDA7B
:1007A000946B28460121FFF7E1FEE0B238BD00BF9F
:1007B00000C0024038B500210546FFF7D7FE094BBF
:1007C0004FF00041FF22D96219465A63CB6A054AAD
:1007D000002BFBDA946B28460121FFF7C7FEE0B23D
:1007E00038BD00BF00C00240F0B500244FF0010E3C
:1007F0002025002600270170427080F802E0057174
:10080000C0E90267C47044718471F0BD10B5002165
:100810000446FFF7BFFE40F00302D2B2002120469B
:10082000FFF710FF702220460721FFF70BFFD4E9E6
:100830000223134306D0052304F108020A212046AF
:10084000FFF7CEFE2046FFF781FF2046FFF798FF17
:100850002078012101F0F8FD41F67863013BFDD1DC
:1008600010BD00BFF8B50D460746FFF7A3FF00F027
:100870004003002B14BF012600260BD0044615B1FF
:10088000C0F342032B70402207213846FFF7DAFEFF
:10089000A30601D43046F8BD384620220721FFF7D1
:1008A000D1FE3046F8BD00BF0021FFF7DBBF00BF1F
:1008B00010B50446FFF7F0FE20461721FFF76AFE49
:1008C00000F0010010BD00BF70B582B0CDE900237B
:1008D00005460C46F1B9C0E90223144E0523315DEB
:1008E0006A462846FFF77CFE34442A79217A284656
:1008F000FFF7A8FE02212846FFF74CFE227C0123C9
:1009000003FA02F20243D2B228460221FFF79AFE0E
:1009100002B070BD0629FBD80129DED0034E0123A9
:10092000715C6A46FFF75CFEDEE700BF6876000098
:1009300038B50C4606210546FFF72CFE032C00F0C7
:10094000F9020BD0022C11D0012C17D0042C05D0A9
:1009500028460621BDE83840FFF774BE284642F01D
:1009600006020621BDE83840FFF76CBE284642F07B
:1009700004020621BDE83840FFF764BE284642F075
:1009800002020621BDE83840FFF75CBE70B50E4696
:1009900006210446FFF7FEFD0023022E00F0D705D6
:1009A000A37013D0012E04BFA67045F008052A4697
:1009B00006212046FFF746FE06212046FFF7EAFD06
:1009C00085421ABF0020A070012070BD45F02005AF
:1009D000EDE700BF38B50C4600210546FFF7DAFD0C
:1009E00000F0F3022CB1012C0CBF42F0080242F0DF
:1009F0000C0228460021BDE83840FFF723BE00BFA7
:100A000010B504460121007801F024FD6078012131
:100A100001F020FD00F03AF82078002101F014FDEB
:100A200001212046FFF7A2FD052001F019FD4F220C
:100A300004212046FFF706FE20460321FFF778FF3A
:100A400020460221FFF7A2FF08B10123E370002135
:100A50002046FFF79BFF20460221FFF7BBFF002245
:100A60001C212046FFF7EEFD702207212046FFF7EC
:100A7000E9FD4C2205212046FFF7E4FD2046FFF763
:100A800065FE2046BDE81040FFF77ABE2849294B95
:100A90000A682948F0B442F48052284F284E294D64
:100AA000294C0A601F60DE601D611C60037813F032
:100AB00003022DD0012A17D0244A4FF4007111608F
:100AC00013F00C0217D0042A27D1214A4FF40071E9
:100AD000116013F0300315D0102B23D11D4B4FF4B0
:100AE00000721A60F0BC70471B4A4FF4007111602D
:100AF00013F00C02E7D1194A4FF4007113F03003E0
:100B00001160E9D1164B4FF410721A60F0BC7047B7
:100B1000144A4FF410711160D2E7134A4FF4007178
:100B20001160D6E7114B4FF400721A60F0BC7047A9
:100B30003C80044000C00240BE15FF1F01401F0062
:100B4000011000380110007800001F804090044020
:100B50000CC0044004C0044008C004401CB0044061
:100B600014B0044018B00440449004403C90044049
:100B7000104A1149136843F480531360CB6880B95D
:100B800043F080730C4AD1688B4209D01168480445
:100B90000AD40A48106043F08040D36010611160AD
:100BA000704723F08073EDE743F08041D36011611B
:100BB000704700BF3C80044000C0024001401F005D
:100BC000914B92491A6842F4805230B41A601A6804
:100BD00042F480521A60CB68CA6813F0807F02F03A
:100BE0000F020CBF00232023012A03D9042A71D845
:100BF00043F00103854A1268550401D443F04003D1
:100C0000824A1268002A01DA43F010037E490A681A
:100C1000D40440EA030005D47C4B7D4C42F480525E
:100C20000A60DC6010F0400404D1784A136843F491
:100C300080431360774B784A10F0200F08BF1A46A4
:100C4000010748BF42F08062430705D510F0030357
:100C500054D1724B134306E010F0030341D142F428
:100C6000805343F00103694AD168D56801F000411F
:100C70000B43AB4203D011684D046CD5D36010F028
:100C8000100F674B08BF4FF4F813002C3ED05F499C
:100C9000644A0B60137813F0030200F09F80012A6E
:100CA00061D0614A4FF40071116013F00C0261D001
:100CB000042A40F098805D4A4FF40071116013F0EF
:100CC00030035ED0102B7ED1594B4FF400721A6066
:100CD00030BC7047062A94BF43F0020343F003037D
:100CE00088E7012B67D0022B0BBF42F4C04342F4CC
:100CF000E04343F0060343F00703B4E7012B5FD062
:100D0000022B0CBF4B4B4C4B1343ACE743F48043DB
:100D10003E49444A43F001030B60137813F0030289
:100D200057D0012A33D0404A4FF4A271116013F01A
:100D30000C0233D0042A61D13C4A4FF4A2711160F5
:100D400013F0300331D0102B52D1394B4FF4A27233
:100D50001A6030BC704741F4804545F001051560CC
:100D6000D36011608BE7354A4FF40071116013F0C6
:100D70000C029DD1324A4FF4007113F03003116020
:100D8000A0D1304B4FF410721A6030BC70472B4A20
:100D90004FF4A271116013F00C02CBD1284A4FF42A
:100DA000A27113F030031160CDD1264B4FF4A27223
:100DB0001A6030BC704742F4804343F0040352E7AA
:100DC000214B13434FE7214B4FF400721A6030BCA4
:100DD00070471F4A4FF4A2711160A8E71C4A4FF4F4
:100DE0001071116061E71B4A4FF40071116066E7F2
:100DF000164B4FF4A2721A6030BC7047154A4FF47C
:100E0000A27111609CE700BF3C80044000C002401A
:100E10000110013800000138000001390101000211
:100E200000001F80BE15FF1F409004400CC004400E
:100E300004C00440060600020707000208C0044080
:100E40001CB0044014B00440040400023C90044070
:100E500018B0044044900440124A1349136843F404
:100E600080531360CA6802F0E063920105D502095D
:100E700002F4706220F4704010430B4AD1681843AA
:100E8000884209D01368590407D40849116040F01A
:100E90008041D06011611360704740F08043D060A2
:100EA000136170473C80044000C0024001401F00B5
:100EB00010B5044602F0F4FA204610BD024A034978
:100EC000034805F025BB00BF3007FF1FB10E00002F
:100ED0008C10FF1F38B5074D074C08482A4621469D
:100EE00005F016FB2A4621460548BDE8384005F0C6
:100EF0000FBB00BF3007FF1FB10E00009410FF1F93
:100F00009C10FF1F024A0349034805F001BB00BFC4
:100F10003007FF1FB10E0000A410FF1F024A034953
:100F2000034805F0F5BA00BF3007FF1FB10E0000FF
:100F3000AC10FF1F024A0349034805F0E9BA00BF9D
:100F40003007FF1FB10E0000B410FF1F024A034913
:100F5000034805F0DDBA00BF3007FF1FB10E0000E7
:100F6000BC10FF1F024A0349034805F0D1BA00BF75
:100F70003007FF1FB10E0000C410FF1F024A0349D3
:100F8000034805F0C5BA00BF3007FF1FB10E0000CF
:100F9000CC10FF1F024A0349034805F0B9BA00BF4D
:100FA0003007FF1FB10E0000D410FF1F024A034993
:100FB000034805F0ADBA00BF3007FF1FB10E0000B7
:100FC000DC10FF1F024A0349034805F0A1BA00BF25
:100FD0003007FF1FB10E0000E410FF1F064B074A49
:100FE000DA620221002259609A7083F8242083F883
:100FF000302083F832207047EC10FF1FAC700000E7
:101000002149224A0B6843F080030B6011461368A4
:10101000DB07FCD40B689B07F9D41D4B30B44FF0B1
:101020008072194D186000E0A2B12968194B164C66
:101030000B40013A002BF7D062B1012B0AD1236893
:1010400013F0800F23680FD043F0011323600320B7
:1010500030BC70470C4A136843F4702343F001031B
:101060001360012030BC704713F4803305D023682F
:1010700043F0011323600520F4E7226842F00102E7
:1010800018462260EEE700BF30100B4024100B40E2
:101090000C100B4001000E0070B50D4D0D480E4EAA
:1010A00000232B60FFF7ACFF6324034606E04BB937
:1010B0002B60FFF7A5FF013C034605D032680548C9
:1010C0005207F4D4184670BD002808BF052070BD33
:1010D00008100B400000DB0C24100B40F8B5384B17
:1010E0001A780AB10320F8BD5B78064603B94902B5
:1010F000344D354C354B36484FF6FF774FF481323F
:101100002F6021601A60FFF77BFF0028EBD1314B85
:1011100031491B681C3406F1400206F510702B683B
:10112000284F43F0200613F4E00F2E603ED12368D1
:101130001E05FCD50B6842F8403C0B6842F83C3C6D
:101140000B6842F8383C0B6842F8343C0B6842F8B4
:10115000303C0B6842F82C3C0B6842F8283C0B688A
:1011600042F8243C0B6842F8203C0B6842F81C3CD7
:101170000B6842F8183C0B6842F8143C0B6842F8C4
:10118000103C0B6842F80C3C0B6842F8083C0B68BA
:1011900042F8043C40328242C1D1002009490B6828
:1011A000084A9B07FBD50D4B1360F8BD43F4E003E1
:1011B00043F020033B60FFF76FFF0120EEE700BF25
:1011C0004011FF1F30100B4008100B4004100B4063
:1011D00010003A1110100B4020100B4022000001AB
:1011E000F8B52B4B1A780AB10320F8BD5B7804469A
:1011F00003B94902274D284E284B29484FF6FF775F
:101200004FF481322F6031601A60FFF7F9FE002839
:10121000EBD1244B24491B682E4604F500772B683C
:101220001C4AD806FBD5336813F4E00F1AD104F139
:10123000400254F8043B0B60A242FAD12B68DFF85D
:1012400054E043F010032B602B6813F4E00013D13B
:101250009742E4D10F490B680E4A9B07FBD5134B0D
:101260001360F8BD136843F4E00343F01003136008
:10127000FFF712FF0120EDE7DEF8003043F4E00352
:1012800043F01003CEF80030FFF706FF0120E1E73E
:101290004011FF1F30100B4008100B4004100B4092
:1012A00000003A1810100B4020100B4012000001F3
:1012B00008B50121007801F0C7F8114B1A7802B97E
:1012C00008BD104A127800211970002AF8D0D307FF
:1012D00003D50D490D4B09681960900703D50A49DC
:1012E0000B4B49681960510703D50749094B8968B9
:1012F00019601307E4D5044A074BD2681A6008BD89
:101300005411FF1F8810FF1F7810FF1F00E100E03D
:1013100004E100E008E100E00CE100E0254B1A7870
:101320001AB10078002101F08FB870B42249234A25
:101330000C78126801251D70002C2AD072B60B782B
:10134000DD0707D51E4C1F49266809681E4D314030
:10135000296021609C0707D51C4C1A4926684968FA
:10136000194D314021606960590707D5184C15495E
:1013700026688968144D31402160A9601B0707D594
:101380001449104B0D68DB680F4C2B400B60E36079
:1013900062B6114BD968914207D0104C1C601049BD
:1013A000DA6042F080441C6119600078002170BC52
:1013B00001F04AB85411FF1F8810FF1F5011FF1F82
:1013C00080E100E06810FF1F7810FF1F84E100E05B
:1013D00088E100E08CE100E000C0024001401F0015
:1013E00000001F80F0B4134C134A236882B01746E4
:1013F000009300984FF0004680B2FF25136843F435
:1014000080631360D6625563D36A002BFCDABB6B32
:10141000DBB2FF2B0AD023680193019B9BB21B1AFE
:101420008B42EBDB002002B0F0BC7047012002B021
:10143000F0BC7047B414FF1F00C00240F8B50D4661
:101440004FF4967116460446FFF7CCFF284B1A68F6
:101450004FF0004042F4806245F040011A60D862CB
:101460001A465963D36A002BFCDA214918204FF041
:1014700000470A6826FA00F342F48062DBB20A6091
:10148000CF624B63CB6A002BFCDA083810F1080FEF
:10149000EFD155B3082D0CBF8721FF21144B1A68DB
:1014A0004FF0004042F480621A60D8621A465963D5
:1014B000D36A002BFCDA0E4A002716464FF000458F
:1014C000FF21136843F480631360D5625163D36ACC
:1014D000002BFCDAB36BD8B21B06607000D4F8BDE9
:1014E0000137B7F5807FECD1F8BD9521D6E700BF75
:1014F00000C00240F0B4164C164A236882B017466A
:10150000009300994FF0004689B2FF25136843F419
:1015100080631360D6625563D36A002BFCDABB6B21
:10152000DBB2FF2B43700BD123680193019B9BB26D
:101530005B1AB3F5967FE9DD002002B0F0BC70477E
:10154000A3F1FE00B0FA80F0400902B0F0BC704791
:10155000B414FF1F00C00240F8B58378032B0E4679
:10156000044618BF4E021546FFF7D8FE3246112139
:101570002046FFF763FF18B92046FFF7BBFF20B9ED
:101580002046FFF795FE0020F8BD204B2049214A58
:101590001A608E4659631A4659631E46596305F50B
:1015A000FD70A91C05F5FE77D36A13F0F00FFBD090
:1015B000C6F834E0B36B01F8013C1B1201F8023CA1
:1015C00002318F42F0D105F50075A8420DD20F4AC5
:1015D0001646D36A13F0F00FFBD0B36B191200F864
:1015E000021BA84200F8013CF3D3084B0949084A02
:1015F000196019465A63CB6A044A13F0F00FFAD007
:101600002046936BFFF754FE0120F8BD00C0024056
:10161000FFFF009000041F80F0B4314E33684FF09C
:10162000004743F4806333603D46F762344671639C
:101630003346511C02F20127E26A002AFCDA1A68DA
:1016400011F8016C42F480621A60DD625E63E26A46
:10165000002AFCDA1A6811F8026B42F480628F42A9
:101660001A60DD625E63E7D11D49CA6A1C4B002A1D
:10167000FBDA1A684FF0004542F48062FF241A60DA
:101680001946DD625C63CB6A154A002BFBDA1368EE
:101690004FF0004543F48063FF2413601146D56288
:1016A0005463CB6A0E4A002BFBDA13684FF00045F7
:1016B00043F48063FF2413601146D5625463CB6A00
:1016C000074A002BFBDA936BDBB203F01F02437077
:1016D000A2F10500B0FA80F04009F0BC704700BFED
:1016E00000C0024070B5044671B18378032B0D46EB
:1016F00018BF4D021646FFF711FE2A461821204654
:10170000FFF79CFE054620B12046FFF7D1FD0020E3
:1017100070BD3246FE212046FFF77EFF0028F3D041
:101720004FF416712046FFF75DFE0028ECD02A46E4
:101730000D212046FFF782FE0028E5D10B4B1A68E9
:101740004FF0004542F48062FF201A601946DD62C6
:101750005863CB6A054A002BFBDA936B13F0FF0F3B
:10176000D2D12046FFF7A4FD012070BD00C0024089
:10177000014B024A1A6070475011FF1F03200038C6
:1017800038B590F90530002B03DBBDE8384000F098
:1017900099B904460121006900F0D4F9F8B1257D1A
:1017A000104B13EB45151AD0A3790F4A012B9CBFA0
:1017B000A369EB61E36912686B831B0CAB8232B1E6
:1017C00005F1160105F1180090472B8B6B826379A8
:1017D00003F07F036371BDE8384000F073B9002067
:1017E00038BD00BF6411FF1F5811FF1F10B500F175
:1017F000080204460121006A00F04CFA50B1E36986
:101800003BB96379A268E26163F07F0363710120F1
:1018100010BD012010BD00BFF8B5837913B18269F6
:101820008A4201D20020F8BD022B0F4605461AD08D
:1018300007B32B6AE9681C7C4A1E04F109037C1E6D
:10184000DA40DC40A24211D9EB69AB6005F1080631
:1018500006E0A968286A00F0E5F9013C0028E1D01B
:101860003246002CF5D1EF600120F8BD0029EBD005
:10187000A41AEBE7AF60EF600120F8BD2DE9F04F4F
:101880008B46817985B001298046019206D00123DB
:1018900088F80430002005B0BDE8F08F4279910748
:1018A000F5D553070AD5D8F80C40D8F818108C4253
:1018B00000F0CF80FFF7B0FF0028E8D0019BD8F8F8
:1018C0000C40002B4ED0DFF8DC91DFF8DCA1019F4B
:1018D000D8F820000579013D05EA542515F0FF05EB
:1018E000C4F308044BD1002C49D1D8F808100029C2
:1018F00040F08980D8F81C20002A00F09880C8F8B1
:101900000820C4F50076B6B2BE423FD890F810E089
:101910004169023A02FA0EF20D44B6F5007F154411
:101920003BD1DAF80020954204BF4FF0FF32CAF8ED
:101930000020584A10680278FE2A294600F082806A
:101940005A46FFF7CFFE0028A1D00BF5007B4FF4DD
:101950000074D8F80C20BF1B1444BFB2C8F80C4068
:10196000002FB5D1D8F81830A34277D298F80520C7
:10197000C8F8184042F0800288F8052079E0C4F5E4
:101980000076B6B2BE42D8F80820BFD9067C4169BD
:10199000023AB2400D4415443E462CB9D8F80C101A
:1019A000D8F8182091421BD22846012100F0CAF82D
:1019B00000283FF46CAF4C4404EB060E744520D075
:1019C0000BF1FF31621E0EF1FF3511F8010F02F825
:1019D000010F9542F9D1C4EB0E0EF3443446B8E73B
:1019E00000F070F800283FF452AF2B49CAF80050BD
:1019F0000A784C4404EB060E42F0010274450A706A
:101A0000DED13446A5E703AA00F00CF900283FF424
:101A100042AFD8F82000214B90F82060039A4FF68F
:101A2000F871102E18BF19468A42FFF468AF40467D
:101A3000FFF7DCFE00283FF42AAFD8F82000D8F8E2
:101A400008205EE75846FFF7CBFBB0FA80F040096C
:101A500079E7019B002B7FF436AF0AE0104B98F832
:101A600005201B682BB1019B1BB142F0800288F856
:101A7000052012070AD598F80630002B3FF407AF6F
:101A80004046FFF77DFE00283FF401AF019805B006
:101A9000BDE8F08F6011FF1F6413FF1FF8FFFF0FF9
:101AA0005811FF1F6411FF1F3C07FF1F00B583B0D3
:101AB00002AB012203F8011D1946FFF7DFFE03B058
:101AC0005DF804FB70B51A4C23780BB9012070BD8A
:101AD000184D194B286819680378FE2B17D0174A40
:101AE000FFF700FE88B1164E316819B90023237044
:101AF000012070BD28680378FE2B0FD00F4AFFF736
:101B0000F1FD10B100233360F0E7002070BD0B48F9
:101B1000FFF766FBB0FA80F04009E3E70748FFF7FC
:101B20005FFBB0FA80F040090028EBD1EDE700BF81
:101B30006413FF1F6011FF1F3C07FF1F6411FF1F8D
:101B40005C11FF1F70B5124D2B6883420E4611D0F9
:101B50000446FFF7B7FF08B9002070BD0D4B1868A9
:101B60000378FE2B0CD00C4A2146FFF7F5FC002829
:101B7000F2D02C60094B197831431970012070BDE7
:101B800021460548FFF7AAFAB0FA80F04009EEE7CF
:101B90003C07FF1F6011FF1F6411FF1F6413FF1F2D
:101BA000F8B590F82030C469102B1A4B05460E4644
:101BB00017461B6816D004EBD1149C4216D106F0D0
:101BC0007F06154A42F826701449287E0A780128B3
:101BD00042F001020A7018D9A968114A0B44136037
:101BE0000120F8BD04EB11249C4208D000212046BE
:101BF000FFF7A8FF50B195F82030102B07D1F6B2AF
:101C0000054A234622F81670DEE70120F8BD234678
:101C1000D5E700BF3C07FF1F6411FF1F6413FF1FC0
:101C20005C11FF1FC36801338B4218D370B590F865
:101C30002030102B154B044616460D46C0691B6814
:101C40000FD000EBD11098420FD105F07F01104B5F
:101C500053F8213023F070433360012070BD002021
:101C6000704700EB1120984207D00021FFF76AFF70
:101C700050B194F82030102BE7D1E9B2044B33F87F
:101C800011303360012070BD002070BD3C07FF1F84
:101C90006411FF1F2DE9F04F176883B06FB3013750
:101CA0004FF0000AC36803F1010813B38B460646E0
:101CB00091463C46002505E01C461F46F368013569
:101CC000AB4216D9A04538BF0224214601AA3046AE
:101CD00038BF2746FFF7A6FF631CD91B48B1019AFE
:101CE000002AE9D18B4510D01C46F3680135AB4280
:101CF000E8D8002003B0BDE8F08FA1F1010ABAFADC
:101D00008AFA07684FEA5A1ACCE7012CF1D9F3682E
:101D100001339C42EDD86FF0704221463046FFF708
:101D20003FFF0028E5D0A74214D2013C012CE0D9A6
:101D3000F36801339C42DCD8621C21463046FFF731
:101D40002FFF0028D5D0A74204F1FF3402D0012C88
:101D5000EED1CEE7D9F8001059B10129C9D9F368FD
:101D600001339942C5D83A463046FFF719FF00289B
:101D7000BFD0C9F80070BAF1000F01D00137376049
:101D80000120B7E790F8392090F83800101A704712
:101D900090F8383090F839209A4205D95A1C0344FB
:101DA00080F83820187E70474FF0FF30704700BF32
:101DB00090F8383090F839209A4286BF1B18187E68
:101DC0004FF0FF30704700BF704700BFB0F85E3083
:101DD0006BB190F85D30202B07D8C218013380F822
:101DE0005D30012082F83B10704701230371002011
:101DF000704700BF38B50546B0F85E0090B195F861
:101E00005D301446C3F1210294420CD805F13B0029
:101E10001844224600F0FAF895F85D30234485F81E
:101E20005D30204638BD012014462871EEE700BF22
:101E300038B50269D478E4B2E106054624D510230A
:101E4000D37063061FD504F0040404F0FF03002CD4
:101E50005AD042496A6E00230B7085F85D30002A23
:101E600066D0904795F85D30002B61D02B69D02269
:101E70009A702B6995F83B201A712B69012285F81D
:101E80005C200222DA7038BD04F0400303F0FF004A
:101E9000002BD8D19379DBB203F0600160294ED0DA
:101EA000937803F0100303F0FF01B3B114F00104C1
:101EB00037D195F85C3095F85D1099424BD9591C93
:101EC0002B4485F85C1093F83B3013712B69D022BA
:101ED0009A702B690222DA70D5E785F86010937941
:101EE00043F0200393712B6995F839101A791F2953
:101EF000D2B2C6D8194800780028C2D0681801317B
:101F000085F839100276BCE72A6985F83930C02394
:101F100093702B69114A1979012111700222DA702C
:101F2000B1E7C02393702B691A790222DA70AAE70D
:101F30000122002385F85D2085F83B3096E703F009
:101F4000DF039371AB6E23B185F8380095F8390043
:101F500098472A69A4E71471B8E700BF4014FF1F2F
:101F60000148FFF765BF00BF4414FF1F0148FFF79A
:101F70005FBF00BF6813FF1F0148FFF759BF00BFD5
:101F8000D413FF1FF0B517481749184A184B194DBD
:101F9000194C0361456100234FF47A75DFF868E05E
:101FA000164F0371037380F8613080F862308560EA
:101FB0000460134E13480B710B7381F8613081F884
:101FC00062301371137382F8613082F862308D6071
:101FD0000C60C1F810E04F619560146016615061AB
:101FE000F0BD00BF4414FF1F6813FF1FD413FF1F71
:101FF00000600640B47000001C710000D470000046
:1020000000600E40F470000000700640844641EA13
:10201000000313F003036DD1403A41D351F8043B60
:1020200040F8043B51F8043B40F8043B51F8043BB2
:1020300040F8043B51F8043B40F8043B51F8043BA2
:1020400040F8043B51F8043B40F8043B51F8043B92
:1020500040F8043B51F8043B40F8043B51F8043B82
:1020600040F8043B51F8043B40F8043B51F8043B72
:1020700040F8043B51F8043B40F8043B51F8043B62
:1020800040F8043B51F8043B40F8043B51F8043B52
:1020900040F8043B51F8043B40F8043B403ABDD2C1
:1020A000303211D351F8043B40F8043B51F8043B63
:1020B00040F8043B51F8043B40F8043B51F8043B22
:1020C00040F8043B103AEDD20C3205D351F8043BF2
:1020D00040F8043B043AF9D2043208D0D2071CBFBE
:1020E00011F8013B00F8013B01D30B8803806046E7
:1020F000704700BF082A13D38B078DD010F003035D
:102100008AD0C3F10403D21ADB071CBF11F8013BCC
:1021100000F8013B80D331F8023B20F8023B7BE71B
:10212000043AD9D3013A11F8013B00F8013BF9D246
:102130000B7803704B7843708B78837060467047E0
:1021400030B42948294A2A4B2A4D6024E1210470E1
:1021500011701B78284C082B30D00A2B27482849AF
:1021600037D00C2B0CBF35225D2212232A6023604E
:1021700002600B60234B24491B78244ABBB1012326
:102180000B601360224B23491B78234A012B26D96D
:10219000042B0FD9082B1ED9102B94BF862387231D
:1021A0000B6013601D4B01221A7030BC70470B602E
:1021B0001360E7E784230B601360F3E700F58E20DC
:1021C0000F490830212213232A60236002600B602C
:1021D000D0E73922F7E785230B601360E2E780231D
:1021E0000B601360DEE700BF00400740014007407E
:1021F0004007FF1F08B003400CB0034008B00B407D
:102200000CB00B40B114FF1F20B0034020B00B40B6
:102210004107FF1F24B0034024B00B40B014FF1F40
:10222000024A136801331360704700BFB414FF1FE4
:1022300008B5104C08E0236859050DD423681A0529
:102240000FD42368DB0411D423685803F3D500F0BE
:10225000C7FA23685905F1D501F06AFD23681A050C
:10226000EFD502F013F92368DB04EDD502F0CEFBC5
:10227000EAE700BF3480044008B5FFF7D9FF00BF8C
:10228000014B10221A80704700200540704700BFA4
:10229000094908B50B6830B16A461844A2F50052E6
:1022A000904202D20860184608BD04F03DF90C23A4
:1022B00003604FF0FF3008BD4407FF1FEFF31380AA
:1022C00070B9EFF310836BB9EFF305825AB94FF48D
:1022D0008070EFF311832BB1984228BF18467047E6
:1022E0004FF0FF3070470F2A01D81846F1E7014B35
:1022F000D05CEEE7F0E300E0084A1378802B01D0D1
:10230000002070470649074B0748086000211970F4
:102310001378802BFCD00120704700BF03E00740FA
:102320004480044001E0074000002822094A137855
:10233000012B01D00020704703F1804303F5FC23FB
:10234000602119701378802BFCD1034B034A1A606B
:102350000120704703E0074044800440000006026B
:1023600010B4114B53F8302092F8804234B101235D
:1023700079B182F880305DF8044B704703EBC003FD
:102380005B681A6851B922F002021A605DF8044BCA
:10239000704782F800315DF8044B704742F0030249
:1023A0001A605DF8044B7047347100001C4A02EB60
:1023B000C00301295B6811D004291BD052F83000FA
:1023C000002280F8802229B1022920D0032922D0BE
:1023D0001A6070474FF480721A60704752F83000EC
:1023E0004FF4A27280F880121A601A6822F020025C
:1023F0001A60704752F830104FF4A272012081F831
:1024000080021A601A6842F020021A60704740F297
:1024100003121A6070474FF481721A60704700BF50
:102420003471000030B4054B054D064C00221021DC
:102430001A602A602060196030BC704714D00340D5
:1024400004D0034000D003403F2801D8FFF788BFE5
:10245000704700BF3F2801D8FFF7A8BF704700BFF3
:102460002DE9F843054672B6224F234B234A1B68D9
:102470003C68126862B6520102D5322B88BF013423
:10248000B5B3C3F52F3303F21F331D4EDFF8689049
:10249000DFF868809B084FF47A72A6FB031302FBF7
:1024A00004F404EB930472B6D9F800103A68D8F833
:1024B00000E062B6C1F52F3303F21F339B08A6FB81
:1024C00003031EF0806FC4EB93034FF47A7002D0C5
:1024D000322988BF013200FB0233B3F57A7F04D37F
:1024E000013D05D004F57A74DDE701F043F8DAE741
:1024F000BDE8F883B414FF1F18E000E004ED00E02D
:10250000176CC116F8B54E4B4E48DFF85CC14E4C07
:102510004E49DFF858E14E4E4E4D4F4F4FF000629E
:102520001A604FF080521A604FF000521A604FF05C
:1025300080421A604FF000421A6000220260282395
:102540004EF6FF70CCF80000CEF8003023600EF598
:10255000012E0B6033602B6006F500263B6005F50D
:102560000025A36207F500278B6204F5012401F51D
:10257000012106F6E87605F6E87507F57F67103164
:102580000EF1100E203433602B60CEF800303B602B
:102590000B602360314CBB618B6109212160A7F581
:1025A000002704F58054203F08343A602060BB6067
:1025B000E36047F8041C04F5FD2407F5FE27043703
:1025C00004F2FC7422603860A360FB6044F8041CD1
:1025D000083404F6FC74C7F8FC2F2060A4F5E1244D
:1025E000A4F2DC7433602B60C7F8F81F21681C4824
:1025F00041F40071216001681A4C0EF57F4E0EF116
:10260000E80E07F5883706F5803605F5803541F088
:1026100000710160CEF8002047F6FF710822396092
:1026200033602B602260FFF78BFD3220FFF718FF2D
:1026300000F000FD4FF4AF70BDE8F840FFF710BFA9
:1026400004E100E004800340148003401C80034048
:10265000248003402C8003403480034000800340EA
:102660000480044000900C40088003400C8003402C
:10267000431E032B14D872B60A4951F8230068B1DF
:1026800070B4094C058834F81320466841F823607B
:10269000521B24F8132062B670BC704762B67047B4
:1026A000002070471015FF1F6C19FF1F0138032809
:1026B0000BD872B6074B53F8203043B100205B684B
:1026C0000130002BFBD162B67047002070471846DE
:1026D000F9E700BF6415FF1FF0B472B61A491B4E2C
:1026E000012311F8014B194F9A00240742F001050C
:1026F00005D556F8324064B156F83520BAB10133E9
:10270000052BEED162B6124B00221A70F0BC00F01D
:1027100019BD0F4C0F4D217847F8325007EB43138A
:1027200008304A1E5860227062B6F0BC70470849F3
:10273000094B0A7847F8353007EBC5030830013AF2
:1027400058600A7062B6F0E75C7300000000FF1F7B
:102750008D15FF1F88004000C8004000431E032B5A
:102760001DD81B4A400140F0100030B4104472B62E
:10277000184CE25C032A1BD8DFE802F0021215179E
:1027800003220D88E25410F0080F14BFC8238823D9
:1027900043EA054308310360416062B630BC7047CC
:1027A00008300222EDE70522EBE708300422E8E7D3
:1027B000094A52F8230038B1084A52F82300416010
:1027C00042F8231062B6E9E742F82310034AF7E71C
:1027D0000000FF1F9C15FF1F6415FF1F7415FF1FCE
:1027E0002DE9F04FDFF800A3DFF800B387B044E035
:1027F000A84F4FEA930807EBC809013ED9F8042017
:1028000003F00803F6B2A2F1080003F0FF04002B66
:1028100040F0FC8057F838301B0C99B222F8081CA5
:10282000002B00F0EA809C4B22F8064C42F8044C46
:1028300053F82620002A00F02982984D55F82630BA
:102840005860974C45F8260034F81630194424F89F
:10285000161000F057FC002800F01182914A924BAC
:1028600019F0080F00F1080018BF1346C9F804005A
:1028700047F8383008238AF800309AF80040E4B26C
:1028800060071AD5894B1B78A3B189490A7802F0F1
:10289000FF0322B1013BDBB20B7003B900BE8549D7
:1028A0000A7802F0FF032AB1013BDBB20B70002B68
:1028B00000F0BB8104238AF8003004F0080303F021
:1028C000FF02002B00F0C6809BF80030DBB21E092F
:1028D0008ED19C086F4F57F8342007EBC401C2F328
:1028E0008302013A49680C2A00F28380DFE802F093
:1028F00077778181818181814081818107000868AA
:102900006D4B6E4D0193674B4A686D4E47F83430FE
:1029100081B240F28164684B6A6028600022012025
:10292000A1421A603A61BA61307000F2E180B1F5FB
:10293000D06F80F02582B1F5817F00F0DE8100F25A
:10294000C181802900F03482822940F0DC81A9888D
:102950005C4B042900F2D8815B4C89000B44227047
:1029600062701A78930740F122832070022023E2DC
:10297000514B01931A683AB3544B514E544918883D
:1029800034780D784028864645F0020828BF4FF07D
:10299000400E002C84F001043470CEEB00000CBF1C
:1029A0008824C82407EBC80680B285F0010544EAF4
:1029B0000E447260188047F8384072440D70002849
:1029C00000F0B780019B1A603C4B1A88B2F5A06FEB
:1029D0000FD100219A7859703E4B1A7009E0374A9E
:1029E000108842F22102904200F0A8802D4A47F858
:1029F0003420394A012313703CE72A4A2A4B19F044
:102A0000080F18BF134647F8383033E700F09AFB39
:102A1000324A334952F82630002B00F03B81586887
:102A20008C5D42F8260003F10802C9F80420032C4B
:102A300005D8DFE804F02C02292602228A551A88DC
:102A400019F0080F0CBF8823C82343EA024347F854
:102A500038300FE7E00700F1EB80210600F1288114
:102A6000A20706D51F4A204913780220DBB2137053
:102A70000870E30602D51C4B10221A7007B0BDE89F
:102A8000F08F04228A55DAE705228A55D7E7032218
:102A90008A55D4E70000FF1F1015FF1FBC14FF1F4D
:102AA0006C19FF1FC8004000880040009815FF1FE8
:102AB0002115FF1FA015FF1FB814FF1F8415FF1F4E
:102AC0002015FF1FC02007409015FF1FCC14FF1FCB
:102AD0008C15FF1F98200740942007406415FF1FA6
:102AE0009C15FF1F8820074080200740902007404A
:102AF00042F22104A14200F0948043D8B1F5086F5E
:102B000000F0A881B1F5106F40F0FD80B84AB94CD3
:102B1000A978117004F1800503E00834AC4200F09C
:102B20009E81236A1906F8D5606A083800F00AFB0E
:102B3000F3E7BEF1400F18BF002243E7AE4ACD1DB8
:102B400011F8013B02F8013FA942F9D1AB4A1268E2
:102B5000862A00F01181AA49AA4E0A78307882F0BC
:102B60000105002842F002020D700CBF8821C82127
:102B700047F8321007EBC20280F0010000213070EC
:102B8000516033E742F22124A14240F0FE81DFF898
:102B9000BCC29D4B9D49AC78DCF800501D6081465D
:102BA0000C700020029080468446044694490D78BB
:102BB00045F0020E07EBCE03B9F1000F5C600CBFCD
:102BC0008824C82444EA080385F0010447F83E300D
:102BD00032700C70DFF81CE28A4BDFF82482002888
:102BE00040F09880BCF1400F1BD144F0020407EB89
:102BF000C403029FDFF8FCE15F60002A40F09F8081
:102C0000020442F0880207444EF8342086F800900F
:102C10000D703B46402804D100207D4A0199108068
:102C20000B607C4A01231370E3E600F0D3FB41E61E
:102C3000704B784872491A614FF0020E80F800E03C
:102C4000754F0A70754919609960754E754D764CCF
:102C50009A610D213970FF213170DFF8F4E129709C
:102C60002270724D724A8EF800109F27012406F8D8
:102C7000047C5D600470DA6007B0BDE8F08F6D4AD7
:102C800047F83800137801331370F3E543F8260052
:102C9000694DD6E58B5D032B67D801A252F823F06E
:102CA0007528000075280000F52C0000EF2C0000AE
:102CB00059495C4B80220D2008701A70A2077FF5DD
:102CC000D8AECFE640F20232914240F05681A98858
:102CD00001F07F01042916D86A88A2B94E4C8900F8
:102CE0000C448146217841F00201217059E701230B
:102CF0008B55BFE500238B55BCE5A98801F07F010A
:102D0000042940F24781444B0F221A70414A0123A3
:102D100013706EE640287FF668AF44F002040EEBB5
:102D2000C401029E4E60AAB1444A83F80090334623
:102D3000403888F8005040334EF834206DE70204E4
:102D4000029B86F8009042F0C8020D7003444EF8D2
:102D500034205FE783F80090029B304A88F80050E7
:102D6000403840334EF8342057E719F0080F0CBFB5
:102D7000022303238B557DE5314A0F211170EAE6CA
:102D8000304A5468002CBED06888B5F804E003E0EF
:102D90000C325468002CB6D013888342F8D1538883
:102DA0007345F5D1000A03280CBF2078108903E091
:102DB000254C022022706270EA88824280F00C81E9
:102DC0000F490D78402A45F0020E944607EBCE00DD
:102DD00028BF4FF0400C04EB0C0344600293CCEB93
:102DE00002004FEA0C484FF001090022C824E9E62E
:102DF0009815FF1F0000FF1F7319FF1F7419FF1F95
:102E00008C15FF1F2015FF1F7C19FF1FB015FF1F1A
:102E1000CC14FF1F94200740C020074088004000CA
:102E2000882007408020074098200740D014FF1FCB
:102E30002415FF1F8D15FF1FBC14FF1FC800400085
:102E40002115FF1F607300009015FF1FB414FF1FB2
:102E50008C200740684A694C12782270ACE76849B8
:102E6000684B694A02916949694C6A4D0394059619
:102E70004FF0000988461C4616460495206828B184
:102E8000456800F05FF92846002DF9D10023236042
:102E9000049B30681A46002342F8293028B145685F
:102EA00000F050F92846002DF9D100223260029A34
:102EB00098F800301146002241F8042B039A029141
:102EC000023B4FF0000122F81910032B07D8DFE86E
:102ED00003F0340234024FF0010388F8003009F1A6
:102EE0000109B9F1040F04F1040406F1040608F124
:102EF0000108C3D1484B059EDFF83091DFF83081DF
:102F000000211970012518F8013B09F8043B1A0744
:102F100018D4AC0044F0020244F00304002347F844
:102F2000323047F834303D4B994505F10105EAD17F
:102F300096F8009089F0010233E64FF0000388F81C
:102F40000030CCE700F0DEF8AC0007EB451300F1F1
:102F50000802002837D05A60314B47F8343000F06F
:102F6000D1F844F0010307EBC30200F1080100B3FC
:102F700051602C4A47F83320CCE7B1F5A06F7FF4BD
:102F8000C2AE00224FF001090BE642F2213291421B
:102F9000F7D0B8E66A88002A7FF4B5AE224C8900E3
:102FA0000C448146217821F002012170F9E50220CC
:102FB00002E7194B44F001021B7847F83200164A29
:102FC00001331370A6E7144B134A1B78AC0001338E
:102FD00047F834001370C2E74028844628BF4FF0FA
:102FE000400C04EB0C03CCEB00004FEA0C480293BE
:102FF00000224FF00109D9E59815FF1F9015FF1F1A
:103000007415FF1F1015FF1F6415FF1F9C15FF1F70
:103010006C19FF1FBC14FF1F8D15FF1FD420074024
:1030200088004000C8004000C0200740C42007407E
:103030005C7300002DE9F041274C02F02BFE0022CA
:1030400004F1880023461A605A60083383424FF027
:103050000001F8D12148224A0368DFF89CE0214EA4
:10306000214D224FDFF894C0DFF8948043F4802391
:103070000360136843F04073136003238EF800303D
:10308000A023337002F5C922C4F3072300F52830CA
:103090002B708030C4F3074310323B70240EFF23A3
:1030A0000470134D8CF80030124888F8003013700B
:1030B000012306F8AC3C4FF400140EF8441C7026B3
:1030C000102107F82C3C2E70046082F8F810AEF145
:1030D000440EBDE8F08100BF0000FF1F34800440B3
:1030E00000D80040402107409C200740B020074006
:1030F00035E400E004E100E044210740802007407F
:103100008820074072B60D480268B2FA82F30B2B92
:1031100010DC4FF00041D94022EA0102026062B6A1
:10312000074803EBC303DB00C2180021C15010465F
:103130005160704762B60020704700BF4807FF1F0C
:10314000D003FF1F0D4B0E4AC31AA2FB03231B091A
:103150000B2B0CD80B4A127852B972B60A484FF0B2
:103160000041026821FA03F31A43026062B6704715
:10317000064A1278002AF0D0FFF7AEBAD003FF1F3C
:10318000398EE3388D15FF1F4807FF1F9815FF1F65
:1031900038B50F4D286878B143880288C1180133CB
:1031A00093420C7A02D24380204638BDFFF7CAFF13
:1031B000002320462B6038BD064B1B782BB1032023
:1031C000FFF756FA28600028E6D14FF0FF3038BDEF
:1031D000AC15FF1F9815FF1F10B5094C206818B1DA
:1031E00043881844007A10BD064B1B782BB103208E
:1031F000FFF73EFA20600028F2D14FF0FF3010BDFB
:10320000AC15FF1F9815FF1F044B054A1B689088DB
:103210001BB11A885B88D31A18447047AC15FF1F7E
:103220006C19FF1F0B4B1B789BB110B50A4C206823
:1032300048B1FFF787FF002303202360FFF718FA48
:1032400030B1FFF77FFF0320FFF712FA0028F8D113
:1032500010BD70479815FF1FAC15FF1F2DE9F04FEB
:10326000DFF8F89083B0012289F80020019169B35A
:10327000DFF8EC80354F019E8346D8F80000B0B3EC
:10328000334D4488C4F14001B14228BF314604EBBC
:10329000010E00221FFA8EFE2A70761AA0F802E0B4
:1032A00000F1080251B1013C224459441BF8014B82
:1032B00002F8014F8B45F9D1B0F802E0BEF13F0FA3
:1032C0000BD8244A05211170002ED6D10198002375
:1032D00089F8003003B0BDE8F08F4022028001463B
:1032E0000420FFF73BFA0022C8F80020E9E73A780B
:1032F00022B3194C164D4FF0010A07E0013C16D0DD
:103300002A78A2B900F036F93A78BAB10420FFF76A
:10331000CDF90728F2D889F800A0FFF7F3FEC8F826
:1033200000000028ADD10D4B013C1870E8D10123FD
:103330004FF0FF302B7003B0BDE8F08F00234FF04B
:10334000FF3089F8003003B0BDE8F08F9815FF1FFB
:10335000A815FF1FA015FF1F21480100A115FF1F81
:10336000A415FF1F00B583B002AB012103F8010DC6
:103370001846FFF773FF03B05DF804FBF8B5114B77
:103380001B788BB1104E114D346801272F7064B13A
:103390000F4A638800271770214623800420FFF717
:1033A000DDF9376000232B70F8BDFFF7ABFE084B4B
:1033B00028B1014604201C70FFF7D0F9F2E71F7016
:1033C000F0E700BF9815FF1FA415FF1FA115FF1FF1
:1033D000A015FF1F38B50E4B1B7873B90D4C216833
:1033E00061B103F0FF054B880B800420FFF7B6F9AD
:1033F000256038BD084B01221A7038BDFFF782FEE8
:103400000028F7D00146BDE838400420FFF7A6B9F0
:10341000A115FF1FA415FF1FA015FF1F1A491B4A66
:103420001B48F8B50B681B4D046843F080730B60B4
:10343000136843F0010313602E6814B915E0646942
:103440009CB1237A002BFAD023682F681B68204692
:1034500098472B68E188DB1B1B099AB28B42A2803C
:1034600088BFE2806469002CEBD10A4B0A4A1B68D2
:1034700010880A4C9B1B1B0999B28342218001D9F9
:103480001180F8BDF8BD00BFFCED00E0001000E0C9
:10349000B415FF1F041000E0B815FF1FBA15FF1F79
:1034A00003790F2B12D80A4A10B4137072B6094967
:1034B00004790A880123A34022EA03030B8062B641
:1034C000102200235DF8044B02710360704700BFB7
:1034D0001A800040BC15FF1FF8B572B106460F46B2
:1034E00014460025336817F8011B1B6830469847BF
:1034F000013C0544F6D12846F8BD1546FBE700BF60
:1035000000B5064A036812885B6883B001A9ADF86C
:1035100004200222984703B05DF804FB34730000D6
:1035200008B5FCF7A3FFFCF7A7FF00F023F8FAE7C4
:10353000FFF778BEFFF722BFFFF74EBEFFF728BEAA
:10354000FFF762BE08461146FFF788BE0846FFF740
:1035500009BF00BF704700BF044B054A1A604FF413
:103560007A71002299601A711A737047C015FF1F93
:103570004073000010B5224C237803B110BD012325
:103580002370FFF741FEA0B900F050FBB8B900F07E
:10359000FBFED0B901F0CCF9E8B901F0D5FC00BBD5
:1035A00001F078FF18BB02F095FA30BB00232370BE
:1035B00010BDFFF7CFFF00F039FB0028E7D002F085
:1035C0001FFC00F0E1FE0028E4D002F0CDFC01F089
:1035D000AFF90028E1D002F07BFD01F0B5FC002836
:1035E000DED002F029FE01F055FF0028DBD002F00A
:1035F000D7FE02F06FFA0028D8D002F079FFD5E7A5
:10360000D015FF1FF0B44D1E2E46002400E00134FB
:10361000B0FBF2F302FB1300092800F130078ABF68
:103620003730F8B2C0B206F8010F1846002BEED1C1
:103630000A1953704CB1107815F8016F28700133D6
:10364000E01A834202F80169F5DB0846F0BC7047D6
:103650002DE9F84F214B1B6807460BB101221A7068
:10366000DFF888901E4D99F80040DFF884801D4EE9
:1036700001343F2C8ABF4FF0000A5FFA84FA5446A7
:10368000AB462B78A34216D1FEF718FE40281FDC6C
:1036900033791B06F5D59BF8003001333F2B86BFED
:1036A00000221346DAB218F80330DBB2F3712A7045
:1036B0002B78A342E8D00C490A4BFFB208F80470FB
:1036C0000120BC22087089F800A0DA70BDE8F88FEC
:1036D000FF28D6DDFFF74EFFD3E700BF6416FF1FBC
:1036E0006116FF1F00A006406016FF1F6816FF1F2F
:1036F000DC15FF1F2E4A2F491368F0B543F4806391
:1037000013600A782C4F2D4E2D4D2E4C2E49002340
:10371000152A3B7033702B7023700B7043D01B2A1B
:103720003CD04AB3294B1B78052B2DD01A2B30D017
:10373000012B1CD0264B274C2749C0F34436C0F33D
:1037400047151E7000F01F005D7004224FF0020E3E
:1037500088273C26402598729A704FF0004083F8E5
:1037600013E05A751F74DE7025700860F0BD1B4BA6
:103770004FF451721A60DDE7194B40F213321A60B0
:10378000124B1B78052BD1D1164B4FF451721A6096
:10379000D0E7154B4FF451721A60CBE7134B40F250
:1037A00013321A60BEE7124B40F213321A60B9E7C7
:1037B000348004401C16FF1FD815FF1FD915FF1FAA
:1037C0006816FF1F6116FF1F6016FF1F4C07FF1FC3
:1037D00000A006401FE400E000E100E044A0044037
:1037E00040A004401CC00440389004403C90044079
:1037F00018C00440194B19499B7803F0EC0200F003
:1038000003031343420700F00F0248BF43F01003C5
:10381000042A8B701CD0114B104A5B79C10603F04F
:10382000EF0348BF43F0100353719379820603F00E
:10383000EF030A4A48BF43F010039371C30506D54E
:1038400053781178DBB241F020011170537070474A
:103850008B7943F040038B71DDE700BF00A0064089
:10386000284B1B685B0533D510B5274C237823B153
:10387000FFF780FE2378002BFAD12448244A254BF9
:103880004FF0004400210460D1701B78152B20D02C
:103890001B2B32D01BB9204B40F203121A601F4B76
:1038A0001B7803F07F03052B1DD01A2B20D0012B92
:1038B00003D11B4B40F203121A601A4B1A481B49E2
:1038C0001A68002303700B700AB10123137010BD36
:1038D0007047174B40F203121A60104B1B7803F02D
:1038E0007F03052BE1D1134B40F203121A60E4E78A
:1038F000114B40F203121A60DFE7104B40F2031243
:103900001A60CCE7348004406016FF1F80E100E0BD
:1039100000A006401C16FF1F40A004404C07FF1FDC
:1039200044A00440D415FF1FD815FF1FD915FF1F51
:1039300018C004401CC00440389004403C9004402F
:103940000A4A38B50546137803F0FF04002BFAD174
:1039500001212846FEF77EFD21462846FEF774FD2C
:10396000034A044B52F835201A6038BD6016FF1F19
:10397000347100006416FF1F09B140F080001E4A38
:10398000137898421BD010B41C4C2468640513D5DE
:1039900003F07F03052B2AD01A2B24D0012B14D03F
:1039A000002900F07F0114BF60234423052915D0AE
:1039B0001A290ED0012903D010705DF8044B70470E
:1039C0000F4943F440730B60F6E70D4B00241C6075
:1039D000E6E70C4943F440730B60EDE70A4943F412
:1039E00040730B60E8E7074B00241C60D8E7064BE8
:1039F00000241C60D4E700BF4C07FF1F3480044044
:103A000044A00440389004401CC00440174A137876
:103A100083420ED016490968490509D5152B20D0D7
:103A20001B2B1AD05BB115280DD01B2810D008B164
:103A3000107070470F4B40F213311960F8E70D49D1
:103A400015280B60F1D10C4B40F213311960EFE7F0
:103A50000A4B40F213311960EAE7084B0021196064
:103A6000E1E7054B00211960DDE700BF1C16FF1FD1
:103A70003480044040A0044018C004403C900440FE
:103A80000D4B1B6813F4806305D03F2805D90B4B01
:103A900000201860704718467047094B10B5074C56
:103AA00053F8303023600121FEF7D4FC2368002254
:103AB0001A70012010BD00BF34800440D415FF1FD0
:103AC000347100000F4B1B6813F4806308D0122878
:103AD00008D0142811D00C4A537B03F0FE03537313
:103AE00000207047094B40F202321A60064A537BAD
:103AF00043F00103537301207047054B40F202323B
:103B00001A60F3E73480044000A006400CA0044093
:103B100014C00440034B1B685B0501D5FFF798BD3B
:103B2000704700BF348004402DE9F84F294B1B68D3
:103B30005A0548D5284B1B6805460BB101221A705F
:103B400005EB010A554540D2DFF89C80234CDFF895
:103B50009C90234F0AE015F8012B09F80B20214A0D
:103B60000123AA45137088F800602ED098F8003021
:103B7000227803F1010BBBF13F0F86BF0026B3464D
:103B80005FFA8BF69345E6D1BC22FA7005E03A79EC
:103B900013060BD422789345DDD1FEF78FFB402826
:103BA000F5DDFF28F6DDFFF7E5FCF3E722780132CB
:103BB0003F2A86BF00210A46D1B219F80220D2B2AC
:103BC000FA712170E6E7BDE8F88F054BBC22DA7088
:103BD000BDE8F88F348004406416FF1F6116FF1F94
:103BE00000A006406016FF1F6816FF1FDC15FF1FB0
:103BF00010B5044C237823B1FFF7BCFC2378002BCD
:103C0000FAD110BD6016FF1F064A074B1B781078CB
:103C1000DBB2C0B283422CBF3F3000F1FF30C01A8C
:103C2000704700BF6116FF1F6816FF1F054A064B4D
:103C300010781B78C0B2DBB2984238BF4030C01A4F
:103C4000704700BFD815FF1FD915FF1F30B4154BA3
:103C5000154C1A782378D2B2DBB29A421ED00133C7
:103C60003F2B0ED91149124B087819680023C0B2B6
:103C7000237021B1D31A1A2B01DC00230B7030BC46
:103C800070470A480A49C05C0968DDB2C0B22570B5
:103C90000029F4D09A4238BF4032EBE74FF0FF30B2
:103CA000EDE700BFD815FF1FD915FF1F2016FF1F16
:103CB000D415FF1F084A094B12781B78DBB29A42D1
:103CC00007D00133402B28BF0023054AD05CC0B287
:103CD00070474FF0FF307047D815FF1FD915FF1FF1
:103CE0002016FF1F0D4B1B685B0516D530B40C4B1F
:103CF0000C4CDA780C480D4902F0CB024025DA7002
:103D00005D74DA7842F03402DA7023780268DBB24C
:103D10000B700AB10023137030BC7047348004402C
:103D200000A00640D915FF1FD415FF1FD815FF1F8F
:103D3000F0B4384B1A7912F0300F2CD072B6997D4E
:103D400001F0FF0200293DD062B6334F3349387885
:103D50000D78334E1C46C0B2EDB2431C402BE179C6
:103D600028BF0023AB4202F1FF32C9B21CBFF1549D
:103D7000184612F0FF02F0D12A4B1B68C2B23A700B
:103D80004BB1A84236BFC5F14005401B401927285A
:103D9000C4BF01221A701F49CA78D2B2150616D4C0
:103DA00052060DD51B4B1B795B0609D51E4B1F49CF
:103DB0001B6800220A7003B11A70164B3C22DA709D
:103DC000F0BC70474022D9795A7462B6E3E70B79A8
:103DD0001C06E5D5164B174E1C783378E4B2DBB2DF
:103DE0009C420ED0144D01E0A3420AD00133402B77
:103DF00028BF00230879E85CC0B2C871087D072895
:103E0000F2D9DBB2034933700B79180644BF7C2327
:103E1000CB70C5E700A00640D815FF1FD915FF1FBE
:103E20002016FF1FD415FF1F6416FF1F6016FF1F0B
:103E30006816FF1F6116FF1FDC15FF1F264A274962
:103E40001368F0B443F4006313600A78244F254EDE
:103E5000254D264C26490023092A3B7033702B70D0
:103E600023700B7032D03B2A23D0224B1B780A2BB5
:103E700027D03A2B03D1204B4FF451721A601F4BBD
:103E80001F4D204CC0F34437C0F3471600F01F000D
:103E90001F7004215E700222987288273C26402001
:103EA0009970DA7459751F74DE7028702260F0BC46
:103EB0007047154B40F213321A600E4B1B780A2BD9
:103EC000D7D1124B4FF451721A60D8E7104B40F221
:103ED00013321A60C9E700BF348004404D07FF1F4A
:103EE000DC16FF1F7116FF1FE416FF1FDD16FF1FF4
:103EF0007016FF1F4E07FF1F00D0044000B00640A1
:103F000021E400E004E100E004D0044010B00440EB
:103F10000CB00440194B19499B7803F0EC0200F0F7
:103F200003031343420700F00F0248BF43F010039E
:103F3000042A8B701CD0114B104A5B79C10603F028
:103F4000EF0348BF43F0100353719379820603F0E7
:103F5000EF030A4A48BF43F010039371C30506D527
:103F600053781178DBB241F0200111705370704723
:103F70008B7943F040038B71DDE700BF00B0064052
:103F8000204B1B681B053BD510B51F4C237823B174
:103F9000FFF7F0FA2378002BFAD11C481C491D4B7F
:103FA000022400220460CA701B78092B19D03B2B15
:103FB00001D1194B1A60194B1B7803F07F030A2BB0
:103FC00019D03A2B02D1164B00221A60154B164815
:103FD00016491A68002303700B700AB1012313708D
:103FE00010BD134B40F203121A600C4B1B7803F008
:103FF0007F030A2BE5D10F4B40F203121A60E5E76D
:10400000704700BF348004407016FF1F84E100E059
:1040100000B006404D07FF1F04D004404E07FF1FAD
:1040200000D004406C16FF1FDC16FF1F7116FF1F27
:104030000CB0044010B004400A4A38B50546137865
:1040400003F0FF04002BFAD101212846FEF702FA03
:1040500021462846FEF7F8F9034A044B52F835206A
:104060001A6038BD7016FF1F34710000E016FF1F84
:1040700009B140F08000174A1378984217D010B465
:10408000154C246824050FD503F07F030A2B1DD09F
:104090003A2B12D0002900F07F0114BF6023442383
:1040A0000A290ED03A2903D010705DF8044B7047EE
:1040B0000A4943F440730B60F6E7084B00241C6088
:1040C000E8E7074943F440730B60EDE7044B002435
:1040D0001C60DFE74E07FF1F3480044000D004401F
:1040E00010B00440124B1A7882420CD01149096872
:1040F000090507D5092A16D03B2A0AD009280DD070
:104100003B2801D0187070470B4A40F21331116000
:10411000F8E7094A002109281160F1D1074A40F265
:1041200013311160EEE7054A00211160E6E700BF98
:104130004D07FF1F3480044004D004400CB00440FD
:104140000D4B1B6813F4006305D03F2805D90B4BBA
:1041500000201860704718467047094B10B5074C8F
:1041600053F8303023600121FEF774F923680022F0
:104170001A70012010BD00BF348004406C16FF1F70
:10418000347100000F4B1B6813F4006308D017282C
:1041900008D03C2811D00C4A537B03F0FE03537324
:1041A00000207047094B40F202321A60064A537BE6
:1041B00043F00103537301207047054B40F2023274
:1041C0001A60F3E73480044000B0064008B00440B1
:1041D00008D004402DE9F84F234B1B681A053BD546
:1041E000224B1B680BB101221A70DFF89090204D12
:1041F00099F80040DFF888801E4E0134272C8ABFD2
:104200004FF0000A5FFA84FA54460746AB462B7813
:104210009C4216D1FEF752F840281FDC33791B066A
:10422000F5D59BF800300133272B86BF00221346BB
:10423000DAB218F80330DBB2F3712A702B789C42A3
:10424000E8D00D490B4BFFB20120BC2208F80470E6
:10425000087089F800A0DA70BDE8F88FFF28D6DD75
:10426000FFF788F9D3E700BF34800440E016FF1F52
:10427000DD16FF1F00B006407016FF1FE416FF1F7B
:104280007416FF1F2DE9F84F294B1B681A0548D5F6
:10429000284B1B6805460BB101221A7005EB010A79
:1042A000554540D2DFF89C80234CDFF89C90234F8B
:1042B0000AE015F8012B09F80B20214A0123AA4531
:1042C000137088F800602ED098F80030227803F13F
:1042D000010BBBF1270F86BF0026B3465FFA8BF6B2
:1042E0009345E6D1BC22FA7005E03A7913060BD467
:1042F00022789345DDD1FDF7E1FF4028F5DDFF2869
:10430000F6DDFFF737F9F3E722780132272A86BF77
:1043100000210A46D1B219F80220D2B2FA712170F6
:10432000E6E7BDE8F88F054BBC22DA70BDE8F88FF0
:1043300034800440E016FF1FDD16FF1F00B006406A
:104340007016FF1FE416FF1F7416FF1F10B5044CF4
:10435000237823B1FFF70EF92378002BFAD110BD93
:104360007016FF1F064A074B1B781078DBB2C0B2ED
:1043700083422CBF273000F1FF30C01A704700BFC6
:10438000DD16FF1FE416FF1F054A064B10781B7849
:10439000C0B2DBB2984238BF4030C01A704700BF8D
:1043A000DC16FF1F7116FF1F30B4154B154C1A7821
:1043B0002378D2B2DBB29A421ED001333F2B0ED902
:1043C0001149124B087819680023C0B2237021B13B
:1043D000D31A1A2B01DC00230B7030BC70470A483B
:1043E0000A49C05C0968DDB2C0B225700029F4D06A
:1043F0009A4238BF4032EBE74FF0FF30EDE700BFA5
:10440000DC16FF1F7116FF1F9C16FF1F6C16FF1F87
:10441000084A094B12781B78DBB29A4207D0013365
:10442000402B28BF0023054AD05CC0B270474FF034
:10443000FF307047DC16FF1F7116FF1F9C16FF1F11
:104440000D4B1B681B0516D530B40C4B0C4CDA78A1
:104450000C480D4902F0CB024025DA705D74DA7821
:1044600042F03402DA7023780268DBB20B700AB1D2
:104470000023137030BC70473480044000B0064005
:104480007116FF1F6C16FF1FDC16FF1FF0B4384BB0
:104490001A7912F0300F2CD072B6997D01F0FF021C
:1044A00000293DD062B6334F334938780D78334E0A
:1044B0001C46C0B2EDB2431C402BE17928BF00235B
:1044C000AB4202F1FF32C9B21CBFF154184612F0E0
:1044D000FF02F0D12A4B1B68C2B23A704BB1A8421E
:1044E00036BFC5F14005401B40192728C4BF012233
:1044F0001A701F49CA78D2B2150616D452060DD5C5
:104500001B4B1B795B0609D51E4B1F491B680022FC
:104510000A7003B11A70164B3C22DA70F0BC704777
:104520004022D9795A7462B6E3E70B791C06E5D5C7
:10453000164B174E1C783378E4B2DBB29C420ED097
:10454000144D01E0A3420AD00133282B28BF0023D9
:104550000879E85CC0B2C871087D0728F2D9DBB2DF
:10456000034933700B79180644BF7C23CB70C5E731
:1045700000B00640DC16FF1F7116FF1F9C16FF1FC0
:104580006C16FF1FE016FF1F7016FF1FE416FF1FBB
:10459000DD16FF1F7416FF1F2DE9F84F214B1B6816
:1045A00007460BB101221A70DFF888901E4D99F86A
:1045B0000040DFF884801D4E0134272C8ABF4FF065
:1045C000000A5FFA84FA5446AB462B78A34216D110
:1045D000FDF774FE40281FDC33791B06F5D59BF8E8
:1045E00000300133272B86BF00221346DAB218F8B9
:1045F0000330DBB2F3712A702B78A342E8D00C4968
:104600000A4BFFB208F804700120AC22087089F848
:1046100000A0DA70BDE8F88FFF28D6DDFEF7AAFF0C
:10462000D3E700BF5C17FF1F5917FF1F00C00640EC
:104630005817FF1F6017FF1FF016FF1F174A184972
:104640001368F0B543F48053164C174D174FDFF83D
:1046500074E01360164E174A002323708EF8003062
:10466000154C2B700B703B7040F213373760134DB5
:104670001349C0F344364FF4517727601670C0F3E6
:1046800047142C2700F01F00402654709072082415
:1046900093701374D7702E700C60F0BD348004409A
:1046A0005917FF1FEC16FF1F6017FF1F5817FF1F3A
:1046B00008C0044000C006400CC0044023E400E0F1
:1046C00004E100E0ED16FF1F194B19499B7803F038
:1046D000EC0200F003031343420700F00F0248BF4F
:1046E00043F01003042A8B701CD0114B104A5B79E5
:1046F000C10603F0EF0348BF43F0100353719379F1
:10470000820603F0EF030A4A48BF43F01003937197
:10471000C30506D553781178DBB241F02001117042
:10472000537070478B7943F040038B71DDE700BF16
:1047300000C00640F8B5114B1B68DB041CD5104CBB
:10474000237823B1FEF716FF2378002BFAD10D4B07
:104750000D4F0E4E0E4D0F4C0F48104908221A6097
:104760000023FB7040F2031232602A60226803705B
:104770000B7012B101231370F8BDF8BD34800440F2
:104780005817FF1F84E100E000C0064008C0044045
:104790000CC00440E816FF1FEC16FF1FED16FF1FAC
:1047A0000A4A38B50546137803F0FF04002BFAD106
:1047B00001212846FDF74EFE21462846FDF744FE1E
:1047C000034A044B52F835201A6038BD5817FF1FB2
:1047D000347100005C17FF1F09B140F08000104ADF
:1047E000137898421AD010B40E4C2468E40412D501
:1047F00003F07F03082B02D10B4B00241C6000291F
:1048000000F07F0314BF60214421082B03D1064B25
:1048100041F44071196010705DF8044B704700BF9F
:104820004F07FF1F348004400CC00440704700BF96
:104830000D4B1B6813F4805305D03F2805D90B4B53
:1048400000201860704718467047094B10B5074C98
:1048500053F8303023600121FDF7FCFD236800226E
:104860001A70012010BD00BF34800440E816FF1FFD
:10487000347100000C4B1B6813F4805306D00E28D3
:1048800006D00A4A537B03F0FE035373002070479F
:10489000074B064A40F202311960537B43F0010393
:1048A00053730120704700BF3480044000C00640AD
:1048B00004C00440034B1B68DB0401D5FFF76CBE4A
:1048C000704700BF3480044070B5094E0446451857
:1048D000AC4204F101040AD03368DB04F8D514F8C3
:1048E000010CFFF759FEAC4204F10104F4D170BD94
:1048F0003480044010B5044C237823B1FEF73AFE0F
:104900002378002BFAD110BD5817FF1F064A074B1A
:104910001B781078DBB2C0B283422CBF273000F185
:10492000FF30C01A704700BF5917FF1F6017FF1FE5
:10493000054A064B10781B78C0B2DBB2984238BFEC
:104940004030C01A704700BFEC16FF1FED16FF1F66
:1049500030B4154B154C1A782378D2B2DBB29A4298
:104960001ED001333F2B0ED91149124B087819681C
:104970000023C0B2237021B1D31A1A2B01DC00230B
:104980000B7030BC70470A480A49C05C0968DDB248
:10499000C0B225700029F4D09A4238BF4032EBE70C
:1049A0004FF0FF30EDE700BFEC16FF1FED16FF1FC5
:1049B0001817FF1FE816FF1F084A094B12781B78CB
:1049C000DBB29A4207D00133402B28BF0023054AAF
:1049D000D05CC0B270474FF0FF307047EC16FF1F3D
:1049E000ED16FF1F1817FF1F054B064A1B780649D7
:1049F0001268DBB20B700AB100231370704700BF5E
:104A0000ED16FF1FE816FF1FEC16FF1F30B42B4BEF
:104A10001A7994061FD52A48DA790378294901338F
:104A20003F2B0978C8BF00238B42D2B203D0264C5B
:104A3000D9B2E2540170254A116861B1244A127852
:104A4000D2B2934236BFC2F140029B1A9B18272B69
:104A5000C4BF01230B70194AD378DBB2180611D4F6
:104A60005A060DD5154B1B795B0609D5194B1A490A
:104A70001B6800220A7003B11A70104B2C22DA70E6
:104A800030BC704711790906EAD5144910480C78F2
:104A90000178C9B28C420DD04A1C272A84BF00215C
:104AA0000A460F4D054C98BFD1B2AA5CD2B2E27152
:104AB0000170D5E76C21D170D2E700BF00C006407D
:104AC000EC16FF1FED16FF1F1817FF1FE816FF1F3C
:104AD0005917FF1F5C17FF1F5817FF1F6017FF1F95
:104AE000F016FF1F2DE9F84F214B1B6807460BB14D
:104AF00001221A70DFF888901E4D99F80040DFF807
:104B000084801D4E0134272C8ABF4FF0000A5FFAC3
:104B100084FA5446AB462B78A34216D1FDF7CEFB60
:104B200040281FDC33791B06F5D59BF80030013394
:104B3000272B86BF00221346DAB218F80330DBB207
:104B4000F3712A702B78A342E8D00C490A4BFFB2CC
:104B500008F804700120AC22087089F800A0DA700F
:104B6000BDE8F88FFF28D6DDFEF704FDD3E700BFD0
:104B7000D817FF1FD517FF1F00D00640D417FF1FFF
:104B8000DC17FF1F6C17FF1F244A25491368F0B478
:104B900043F4005313600A78224F234E234D244CD4
:104BA000244900231F2A3B7033702B7023700B7035
:104BB0002FD03F2A20D0204B1B78202B24D03E2BF7
:104BC00003D11E4B4FF451721A601D4B1D4D1E49EF
:104BD000C0F344361E70C0F3471400222C27402631
:104BE00000F01F005C70987220249A701A74DF70B5
:104BF0002E700C60F0BC7047144B40F213321A60F8
:104C00000D4B1B78202BDAD1114B4FF451721A60E7
:104C1000DBE7104B40F213321A60CCE734800440DB
:104C20005007FF1F6817FF1F6917FF1FDC17FF1FC3
:104C3000D517FF1FD417FF1F5107FF1F10D00440C7
:104C400000D0064025E400E004E100E014D0044078
:104C50002CA0044028A00440194B19499B7803F06C
:104C6000EC0200F003031343420700F00F0248BFB9
:104C700043F01003042A8B701CD0114B104A5B794F
:104C8000C10603F0EF0348BF43F01003537193795B
:104C9000820603F0EF030A4A48BF43F01003937102
:104CA000C30506D553781178DBB241F020011170AD
:104CB000537070478B7943F040038B71DDE700BF81
:104CC00000D00640204B1B689B043BD510B51F4C01
:104CD000237823B1FEF74EFC2378002BFAD11C4831
:104CE0001C491D4B202400220460CA701B781F2B16
:104CF00019D03F2B01D1194B1A60194B1B7803F0C7
:104D00007F03202B19D03E2B02D1164B00221A60B4
:104D1000154B164816491A68002303700B700AB128
:104D20000123137010BD134B40F203121A600C4B99
:104D30001B7803F07F03202BE5D10F4B40F20312C9
:104D40001A60E5E7704700BF34800440D417FF1FA6
:104D500084E100E000D006405007FF1F14D004405B
:104D60005107FF1F10D004406417FF1F6817FF1F73
:104D70006917FF1F28A004402CA004400A4A38B538
:104D80000546137803F0FF04002BFAD101212846D1
:104D9000FDF760FB21462846FDF756FB034A044B0E
:104DA00052F835201A6038BDD417FF1F3471000047
:104DB000D817FF1F09B140F08000174A13789842B6
:104DC00017D010B4154C2468A4040FD503F07F034A
:104DD000202B1DD03E2B12D0002900F07F0114BFE4
:104DE0006023442320290ED03E2903D010705DF8A3
:104DF000044B70470A4943F440730B60F6E7084BD5
:104E000000241C60E8E7074943F440730B60EDE7BA
:104E1000044B00241C60DFE75107FF1F348004406F
:104E200010D004402CA00440124B1A7882420CD0BF
:104E300011490968890407D51F2A16D03F2A0AD0CC
:104E40001F280DD03F2801D0187070470B4A40F240
:104E500013311160F8E7094A00211F281160F1D1D0
:104E6000074A40F213311160EEE7054A0021116054
:104E7000E6E700BF5007FF1F3480044014D0044011
:104E800028A004400D4B1B6813F4005305D03F28A5
:104E900005D90B4B00201860704718467047094B26
:104EA00010B5074C53F8303023600121FDF7D2FADA
:104EB000236800221A70012010BD00BF3480044016
:104EC0006417FF1F3471000000207047034B1B68FC
:104ED0009B0401D5FFF706BE704700BF3480044035
:104EE00070B5094E04464518AC4204F101040AD0DD
:104EF00033689B04F8D514F8010CFFF7F3FDAC42BE
:104F000004F10104F4D170BD3480044010B5044CA8
:104F1000237823B1FEF72EFB2378002BFAD110BDA6
:104F2000D417FF1F064A074B1B781078DBB2C0B2BC
:104F300083422CBF273000F1FF30C01A704700BFFA
:104F4000D517FF1FDC17FF1F054A064B10781B788B
:104F5000C0B2DBB2984238BF4030C01A704700BFC1
:104F60006817FF1F6917FF1F30B4154B154C1A78CF
:104F70002378D2B2DBB29A421ED001333F2B0ED936
:104F80001149124B087819680023C0B2237021B16F
:104F9000D31A1A2B01DC00230B7030BC70470A486F
:104FA0000A49C05C0968DDB2C0B225700029F4D09E
:104FB0009A4238BF4032EBE74FF0FF30EDE700BFD9
:104FC0006817FF1F6917FF1F9417FF1F6417FF1F44
:104FD000084A094B12781B78DBB29A4207D001339A
:104FE000402B28BF0023054AD05CC0B270474FF069
:104FF000FF3070476817FF1F6917FF1F9417FF1FC7
:10500000054B064A1B7806491268DBB20B700AB1E1
:1050100000231370704700BF6917FF1F6417FF1F3D
:105020006817FF1F30B42B4B1A7994061FD52A48F6
:10503000DA790378294901333F2B0978C8BF002367
:105040008B42D2B203D0264CD9B2E2540170254A29
:10505000116861B1244A1278D2B2934236BFC2F1CC
:1050600040029B1A9B18272BC4BF01230B70194ABF
:10507000D378DBB2180611D45A060DD5154B1B791F
:105080005B0609D5194B1A491B6800220A7003B147
:105090001A70104B2C22DA7030BC70471179090657
:1050A000EAD5144910480C780178C9B28C420DD069
:1050B0004A1C272A84BF00210A460F4D054C98BF81
:1050C000D1B2AA5CD2B2E2710170D5E76C21D17085
:1050D000D2E700BF00D006406817FF1F6917FF1F07
:1050E0009417FF1F6417FF1FD517FF1FD817FF1F47
:1050F000D417FF1FDC17FF1F6C17FF1F2DE9F84F98
:10510000214B1B6807460BB101221A70DFF888900B
:105110001E4D99F80040DFF884801D4E0134272C85
:105120008ABF4FF0000A5FFA84FA5446AB462B78E8
:10513000A34216D1FDF7C2F840281FDC33791B06C5
:10514000F5D59BF800300133272B86BF002213468C
:10515000DAB218F80330DBB2F3712A702B78A3426D
:10516000E8D00C490A4BFFB208F804700120AC22C9
:10517000087089F800A0DA70BDE8F88FFF28D6DD46
:10518000FEF7F8F9D3E700BF5418FF1F5118FF1FAF
:1051900000A00E405018FF1F5818FF1FE817FF1FF0
:1051A000174A18491368F0B543F48063164C174D3D
:1051B000174FDFF874E01360164E174A0023237070
:1051C0008EF80030154C2B700B703B7040F213378B
:1051D0003760134D1349C0F344364FF451772760BD
:1051E0001670C0F347142C2700F01F00402654709F
:1051F0009072042493701374D7702E700C60F0BDFD
:10520000288004405118FF1FE417FF1F5818FF1F84
:105210005018FF1F64D0044000A00E4060D004402E
:1052200042E400E008E100E0E517FF1F194B1949CF
:105230009B7803F0EC0200F003031343420700F0F5
:105240000F0248BF43F01003042A8B701CD0114B8F
:10525000104A5B79C10603F0EF0348BF43F0100327
:1052600053719379820603F0EF030A4A48BF43F073
:1052700010039371C30506D553781178DBB241F062
:1052800020011170537070478B7943F040038B718C
:10529000DDE700BF00A00E40F8B5114B1B685B05B1
:1052A0001CD5104C237823B1FEF764F92378002B2A
:1052B000FAD10D4B0D4F0E4E0E4D0F4C0F481049AD
:1052C00004221A600023FB7040F2031232602A604D
:1052D000226803700B7012B101231370F8BDF8BD82
:1052E000288004405018FF1F88E100E000A00E4015
:1052F00064D0044060D00440E017FF1FE417FF1F94
:10530000E517FF1F0A4A38B50546137803F0FF0476
:10531000002BFAD101212846FDF79CF821462846AA
:10532000FDF792F8034A044B52F835201A6038BD55
:105330005018FF1F347100005418FF1F09B140F0CE
:105340008000104A137898421AD010B40E4C24688A
:10535000640512D503F07F03212B02D10B4B0024EF
:105360001C60002900F07F0314BF60214421212B21
:1053700003D1064B41F44071196010705DF8044B85
:10538000704700BF5207FF1F2880044060D00440D0
:10539000704700BF0D4B1B6813F4806305D03F2896
:1053A00005D90B4B00201860704718467047094B11
:1053B00010B5074C53F8303023600121FDF74AF84F
:1053C000236800221A70012010BD00BF288004400D
:1053D000E017FF1F347100000C4B1B6813F480634F
:1053E00006D0182806D00A4A537B03F0FE035373F5
:1053F00000207047074B064A40F202311960537B88
:1054000043F0010353730120704700BF288004401C
:1054100000A00E4068D00440034B1B685B0501D51B
:10542000FFF76CBE704700BF2880044070B5094E7E
:1054300004464518AC4204F101040AD033685B0508
:10544000F8D514F8010CFFF759FEAC4204F1010441
:10545000F4D170BD2880044010B5044C237823B1EA
:10546000FEF788F82378002BFAD110BD5018FF1FE3
:10547000064A074B1B781078DBB2C0B283422CBFC0
:10548000273000F1FF30C01A704700BF5118FF1FCE
:105490005818FF1F054A064B10781B78C0B2DBB2C4
:1054A000984238BF4030C01A704700BFE417FF1F52
:1054B000E517FF1F30B4154B154C1A782378D2B27C
:1054C000DBB29A421ED001333F2B0ED91149124B49
:1054D000087819680023C0B2237021B1D31A1A2B9F
:1054E00001DC00230B7030BC70470A480A49C05CDD
:1054F0000968DDB2C0B225700029F4D09A4238BFE5
:105500004032EBE74FF0FF30EDE700BFE417FF1F3D
:10551000E517FF1F1018FF1FE017FF1F084A094B70
:1055200012781B78DBB29A4207D00133402B28BF98
:105530000023054AD05CC0B270474FF0FF3070477F
:10554000E417FF1FE517FF1F1018FF1F054B064A42
:105550001B7806491268DBB20B700AB10023137086
:10556000704700BFE517FF1FE017FF1FE417FF1F7D
:1055700030B42B4B1A7994061FD52A48DA79037870
:10558000294901333F2B0978C8BF00238B42D2B28F
:1055900003D0264CD9B2E2540170254A116861B19A
:1055A000244A1278D2B2934236BFC2F140029B1A0B
:1055B0009B18272BC4BF01230B70194AD378DBB289
:1055C000180611D45A060DD5154B1B795B0609D563
:1055D000194B1A491B6800220A7003B11A70104B4C
:1055E0002C22DA7030BC704711790906EAD51449CB
:1055F00010480C780178C9B28C420DD04A1C272A79
:1056000084BF00210A460F4D054C98BFD1B2AA5C59
:10561000D2B2E2710170D5E76C21D170D2E700BF40
:1056200000A00E40E417FF1FE517FF1F1018FF1F13
:10563000E017FF1F5118FF1F5418FF1F5018FF1FBE
:105640005818FF1FE817FF1F2DE9F84F204B1B6864
:1056500080460BB101221A70DFF88CA01D4D9AF81C
:1056600000401D4F1D4E0134272C8ABF4FF0000B08
:105670005FFA84FB5C46A9462B78A34215D1FCF760
:105680001DFE40281EDC73681B02F5D599F800301A
:105690000133272B86BF00221346DAB2FB5CDBB254
:1056A000F3602A702B78A342E9D00D490D4A5FFAC6
:1056B00088F807F8048001230B708AF800B01360A3
:1056C000BDE8F88FFF28D7DDFDF754FFD4E700BF12
:1056D000D018FF1FCD18FF1F6418FF1F00400C409B
:1056E000CC18FF1F5C018843D418FF1F4D4A4E4958
:1056F000136843F010032DE9F04113600F6807F4BD
:105700004033B3F5403F00F08680484F484AB3F538
:10571000803F18BF17468600B7FBF6FC1FFA8CFCCB
:10572000BCF1000F69D04FEA8C0EB7FBFEFEBEEB5A
:10573000000E64D1064405214FF0040808E0002B58
:105740006BD188469E4694460131212906441AD0E1
:10575000B7FBF6F292B2541CA4B201FB02F301FBB8
:1057600004F582B1B7FBF3F31B1A7345E7D9B7FB16
:10577000F5F5451B7545E7D8884601312129AE4628
:10578000A4460644E4D108F1FF331B06CCF30C0C0D
:1057900003F0F853274A2449274D284C2848DFF8BE
:1057A000B8E0284F284E43EA0C03B8F1070F98BF22
:1057B00043F4003313600B68DFF8A0C043F080634C
:1057C0000B6000238CF8003040F244512B7040F203
:1057D00013558EF800303B70337025600160936084
:1057E000136153609368194C194943F430134025F1
:1057F0004FF48000936025700860BDE8F0810CF1E3
:1058000001029300B7FBF3F3C31A9E4584BF1FFA4E
:1058100082FC9E468EE70F4F7DE79E469446884663
:10582000A5E700BF2C800440048004400095BA0A1C
:1058300040A5AE0200400C406118FF1F20C004408C
:1058400024C00440CD18FF1FCC18FF1F56E400E011
:1058500008E100E0006CDC02D418FF1F6018FF1F95
:105860001B4B1B499B6800F0030223F013031343F7
:10587000420700F00F0248BF43F01003042A8B6078
:1058800020D0030704D5124A136843F00053136075
:105890000F4B0F4A5B68C10623F0805348BF43F0AB
:1058A000805353609368820623F08053084A48BFB0
:1058B00043F080539360C30503D5136843F400534A
:1058C000136070478B6843F080438B60D9E700BF5B
:1058D00000400C40F8B5124B1B68DB061DD5114C7F
:1058E000237823B1FDF746FE2378002BFAD10E4B27
:1058F0000E4F0F4E0F4D104C104811494FF48002BF
:105900001A60002340F20312BB6032602A602268F2
:1059100003700B7012B101231370F8BDF8BD00BF06
:105920002C800440CC18FF1F88E100E000400C40B0
:1059300020C0044024C004405C18FF1F6018FF1FF3
:105940006118FF1F0A4A38B50546137803F0FF04B3
:10595000002BFAD101212846FCF77CFD2146284680
:10596000FCF772FD034A044B52F835201A6038BD2B
:10597000CC18FF1F34710000D018FF1F09B140F090
:105980008000104A137898421AD010B40E4C246844
:10599000E40612D503F07F03302B02D10B4B002419
:1059A0001C60002900F07F0314BF60214421302BCC
:1059B00003D1064B41F4A061196010705DF8044BEF
:1059C000704700BF5307FF1F2C80044024C00440D1
:1059D000704700BF0D4B1B6813F0100305D03F2824
:1059E00005D90B4B00201860704718467047094BCB
:1059F00010B5074C53F8303023600121FCF72AFD25
:105A0000236800221A70012010BD00BF2C800440C2
:105A10005C18FF1F347100000C4B1B6813F010035F
:105A200006D0382806D00A4A537B03F0FE0353738E
:105A300000207047074B064A40F202511960537B21
:105A400043F0010353730120704700BF2C800440D2
:105A500000B00E4028D00440034B1B68DB0601D584
:105A6000FFF7F2BD704700BF2C80044070B5094EAF
:105A700004464518AC4204F101040AD03368DB0641
:105A8000F8D514F8010CFFF7DFFDAC4204F1010476
:105A9000F4D170BD2C80044010B5044C237823B1A0
:105AA000FDF768FD2378002BFAD110BDCC18FF1F3D
:105AB000064A074B1B781078DBB2C0B283422CBF7A
:105AC000273000F1FF30C01A704700BFCD18FF1F0C
:105AD000D418FF1F054A064B10781B78C0B2DBB202
